{
  "contractName": "FlightDelay",
  "abi": [
    {
      "stateMutability": "payable",
      "type": "fallback",
      "payable": true
    },
    {
      "inputs": [],
      "name": "getBalance",
      "outputs": [
        {
          "internalType": "uint256",
          "name": "",
          "type": "uint256"
        }
      ],
      "stateMutability": "view",
      "type": "function",
      "constant": true
    },
    {
      "inputs": [],
      "name": "initBalance",
      "outputs": [],
      "stateMutability": "payable",
      "type": "function",
      "payable": true
    },
    {
      "inputs": [
        {
          "internalType": "uint256",
          "name": "",
          "type": "uint256"
        }
      ],
      "name": "insuranceToOwner",
      "outputs": [
        {
          "internalType": "address",
          "name": "",
          "type": "address"
        }
      ],
      "stateMutability": "view",
      "type": "function",
      "constant": true
    },
    {
      "inputs": [
        {
          "internalType": "uint256",
          "name": "",
          "type": "uint256"
        }
      ],
      "name": "insurances",
      "outputs": [
        {
          "internalType": "string",
          "name": "airline",
          "type": "string"
        },
        {
          "internalType": "string",
          "name": "flight_number",
          "type": "string"
        },
        {
          "internalType": "string",
          "name": "departure_date",
          "type": "string"
        },
        {
          "internalType": "string",
          "name": "delay_status",
          "type": "string"
        },
        {
          "internalType": "string",
          "name": "payment_status",
          "type": "string"
        }
      ],
      "stateMutability": "view",
      "type": "function",
      "constant": true
    },
    {
      "inputs": [
        {
          "internalType": "address",
          "name": "",
          "type": "address"
        }
      ],
      "name": "isOwner",
      "outputs": [
        {
          "internalType": "bool",
          "name": "",
          "type": "bool"
        }
      ],
      "stateMutability": "view",
      "type": "function",
      "constant": true
    },
    {
      "inputs": [
        {
          "internalType": "address",
          "name": "",
          "type": "address"
        }
      ],
      "name": "ownerInsuranceCount",
      "outputs": [
        {
          "internalType": "uint256",
          "name": "",
          "type": "uint256"
        }
      ],
      "stateMutability": "view",
      "type": "function",
      "constant": true
    },
    {
      "inputs": [
        {
          "internalType": "uint256",
          "name": "",
          "type": "uint256"
        }
      ],
      "name": "owners",
      "outputs": [
        {
          "internalType": "address",
          "name": "",
          "type": "address"
        }
      ],
      "stateMutability": "view",
      "type": "function",
      "constant": true
    },
    {
      "stateMutability": "payable",
      "type": "receive",
      "payable": true
    },
    {
      "inputs": [
        {
          "internalType": "address",
          "name": "_owner",
          "type": "address"
        },
        {
          "internalType": "string",
          "name": "_airline",
          "type": "string"
        },
        {
          "internalType": "string",
          "name": "_flight_number",
          "type": "string"
        },
        {
          "internalType": "string",
          "name": "_departure_date",
          "type": "string"
        }
      ],
      "name": "createInsurance",
      "outputs": [],
      "stateMutability": "payable",
      "type": "function",
      "payable": true
    },
    {
      "inputs": [
        {
          "internalType": "address",
          "name": "_owner",
          "type": "address"
        }
      ],
      "name": "getInsuranceIds",
      "outputs": [
        {
          "internalType": "uint256[]",
          "name": "",
          "type": "uint256[]"
        }
      ],
      "stateMutability": "view",
      "type": "function",
      "constant": true
    },
    {
      "inputs": [
        {
          "internalType": "uint256",
          "name": "_id",
          "type": "uint256"
        }
      ],
      "name": "getInsurance",
      "outputs": [
        {
          "internalType": "string[]",
          "name": "",
          "type": "string[]"
        }
      ],
      "stateMutability": "view",
      "type": "function",
      "constant": true
    },
    {
      "inputs": [],
      "name": "getOwners",
      "outputs": [
        {
          "internalType": "address[]",
          "name": "",
          "type": "address[]"
        }
      ],
      "stateMutability": "view",
      "type": "function",
      "constant": true
    },
    {
      "inputs": [
        {
          "internalType": "uint256",
          "name": "_id",
          "type": "uint256"
        },
        {
          "internalType": "string",
          "name": "_status",
          "type": "string"
        },
        {
          "internalType": "string",
          "name": "_payment",
          "type": "string"
        },
        {
          "internalType": "uint256",
          "name": "_amount",
          "type": "uint256"
        }
      ],
      "name": "updateInsurance",
      "outputs": [],
      "stateMutability": "nonpayable",
      "type": "function"
    }
  ],
  "bytecode": "0x608060405234801561001057600080fd5b50611e0b806100206000396000f3fe6080604052600436106100ab5760003560e01c806385fae6021161006457806385fae602146101f3578063a0e67e2b14610230578063c336b5681461025b578063c4b8edf014610298578063d59a2ad6146102c1578063d73bbd20146102cb576100b2565b8063025e7c27146100b457806312065fe0146100f15780632f54bf6e1461011c5780633654eed01461015957806359fb49f9146101965780636103224d146101d7576100b2565b366100b257005b005b3480156100c057600080fd5b506100db60048036038101906100d691906111a6565b610308565b6040516100e89190611214565b60405180910390f35b3480156100fd57600080fd5b50610106610347565b604051610113919061123e565b60405180910390f35b34801561012857600080fd5b50610143600480360381019061013e9190611285565b61034f565b60405161015091906112cd565b60405180910390f35b34801561016557600080fd5b50610180600480360381019061017b9190611285565b61036f565b60405161018d919061123e565b60405180910390f35b3480156101a257600080fd5b506101bd60048036038101906101b891906111a6565b610387565b6040516101ce959493929190611378565b60405180910390f35b6101f160048036038101906101ec9190611523565b610675565b005b3480156101ff57600080fd5b5061021a600480360381019061021591906111a6565b61086e565b60405161022791906116ea565b60405180910390f35b34801561023c57600080fd5b50610245610ccd565b60405161025291906117ca565b60405180910390f35b34801561026757600080fd5b50610282600480360381019061027d91906111a6565b610d5b565b60405161028f9190611214565b60405180910390f35b3480156102a457600080fd5b506102bf60048036038101906102ba91906117ec565b610d8e565b005b6102c9610e3d565b005b3480156102d757600080fd5b506102f260048036038101906102ed9190611285565b610e3f565b6040516102ff9190611949565b60405180910390f35b6001818154811061031857600080fd5b906000526020600020016000915054906101000a900473ffffffffffffffffffffffffffffffffffffffff1681565b600047905090565b60026020528060005260406000206000915054906101000a900460ff1681565b60046020528060005260406000206000915090505481565b6000818154811061039757600080fd5b90600052602060002090600502016000915090508060000180546103ba9061199a565b80601f01602080910402602001604051908101604052809291908181526020018280546103e69061199a565b80156104335780601f1061040857610100808354040283529160200191610433565b820191906000526020600020905b81548152906001019060200180831161041657829003601f168201915b5050505050908060010180546104489061199a565b80601f01602080910402602001604051908101604052809291908181526020018280546104749061199a565b80156104c15780601f10610496576101008083540402835291602001916104c1565b820191906000526020600020905b8154815290600101906020018083116104a457829003601f168201915b5050505050908060020180546104d69061199a565b80601f01602080910402602001604051908101604052809291908181526020018280546105029061199a565b801561054f5780601f106105245761010080835404028352916020019161054f565b820191906000526020600020905b81548152906001019060200180831161053257829003601f168201915b5050505050908060030180546105649061199a565b80601f01602080910402602001604051908101604052809291908181526020018280546105909061199a565b80156105dd5780601f106105b2576101008083540402835291602001916105dd565b820191906000526020600020905b8154815290600101906020018083116105c057829003601f168201915b5050505050908060040180546105f29061199a565b80601f016020809104026020016040519081016040528092919081815260200182805461061e9061199a565b801561066b5780601f106106405761010080835404028352916020019161066b565b820191906000526020600020905b81548152906001019060200180831161064e57829003601f168201915b5050505050905085565b61067e84610f91565b60006040518060a001604052808581526020018481526020018381526020016040518060400160405280600181526020017f2d0000000000000000000000000000000000000000000000000000000000000081525081526020016040518060400160405280600781526020017f556e2050616964000000000000000000000000000000000000000000000000008152508152509080600181540180825580915050600190039060005260206000209060050201600090919091909150600082015181600001908161074f9190611b77565b5060208201518160010190816107659190611b77565b50604082015181600201908161077b9190611b77565b5060608201518160030190816107919190611b77565b5060808201518160040190816107a79190611b77565b505050600060016000805490506107be9190611c78565b9050846003600083815260200190815260200160002060006101000a81548173ffffffffffffffffffffffffffffffffffffffff021916908373ffffffffffffffffffffffffffffffffffffffff160217905550600460008673ffffffffffffffffffffffffffffffffffffffff1673ffffffffffffffffffffffffffffffffffffffff168152602001908152602001600020600081548092919061086290611cac565b91905055505050505050565b60606000600567ffffffffffffffff81111561088d5761088c6113f8565b5b6040519080825280602002602001820160405280156108c057816020015b60608152602001906001900390816108ab5790505b509050600083815481106108d7576108d6611cf4565b5b906000526020600020906005020160000180546108f39061199a565b80601f016020809104026020016040519081016040528092919081815260200182805461091f9061199a565b801561096c5780601f106109415761010080835404028352916020019161096c565b820191906000526020600020905b81548152906001019060200180831161094f57829003601f168201915b50505050508160008151811061098557610984611cf4565b5b6020026020010181905250600083815481106109a4576109a3611cf4565b5b906000526020600020906005020160010180546109c09061199a565b80601f01602080910402602001604051908101604052809291908181526020018280546109ec9061199a565b8015610a395780601f10610a0e57610100808354040283529160200191610a39565b820191906000526020600020905b815481529060010190602001808311610a1c57829003601f168201915b505050505081600181518110610a5257610a51611cf4565b5b602002602001018190525060008381548110610a7157610a70611cf4565b5b90600052602060002090600502016002018054610a8d9061199a565b80601f0160208091040260200160405190810160405280929190818152602001828054610ab99061199a565b8015610b065780601f10610adb57610100808354040283529160200191610b06565b820191906000526020600020905b815481529060010190602001808311610ae957829003601f168201915b505050505081600281518110610b1f57610b1e611cf4565b5b602002602001018190525060008381548110610b3e57610b3d611cf4565b5b90600052602060002090600502016003018054610b5a9061199a565b80601f0160208091040260200160405190810160405280929190818152602001828054610b869061199a565b8015610bd35780601f10610ba857610100808354040283529160200191610bd3565b820191906000526020600020905b815481529060010190602001808311610bb657829003601f168201915b505050505081600381518110610bec57610beb611cf4565b5b602002602001018190525060008381548110610c0b57610c0a611cf4565b5b90600052602060002090600502016004018054610c279061199a565b80601f0160208091040260200160405190810160405280929190818152602001828054610c539061199a565b8015610ca05780601f10610c7557610100808354040283529160200191610ca0565b820191906000526020600020905b815481529060010190602001808311610c8357829003601f168201915b505050505081600481518110610cb957610cb8611cf4565b5b602002602001018190525080915050919050565b60606001805480602002602001604051908101604052809291908181526020018280548015610d5157602002820191906000526020600020905b8160009054906101000a900473ffffffffffffffffffffffffffffffffffffffff1673ffffffffffffffffffffffffffffffffffffffff1681526020019060010190808311610d07575b5050505050905090565b60036020528060005260406000206000915054906101000a900473ffffffffffffffffffffffffffffffffffffffff1681565b60006003600086815260200190815260200160002060009054906101000a900473ffffffffffffffffffffffffffffffffffffffff169050610dd081836110a8565b8360008681548110610de557610de4611cf4565b5b90600052602060002090600502016003019081610e029190611b77565b508260008681548110610e1857610e17611cf4565b5b90600052602060002090600502016004019081610e359190611b77565b505050505050565b565b60606000600460008473ffffffffffffffffffffffffffffffffffffffff1673ffffffffffffffffffffffffffffffffffffffff1681526020019081526020016000205467ffffffffffffffff811115610e9c57610e9b6113f8565b5b604051908082528060200260200182016040528015610eca5781602001602082028036833780820191505090505b5090506000805b600080549050811015610f86578473ffffffffffffffffffffffffffffffffffffffff166003600083815260200190815260200160002060009054906101000a900473ffffffffffffffffffffffffffffffffffffffff1673ffffffffffffffffffffffffffffffffffffffff1603610f735780838381518110610f5857610f57611cf4565b5b6020026020010181815250508180610f6f90611cac565b9250505b8080610f7e90611cac565b915050610ed1565b508192505050919050565b60001515600260008373ffffffffffffffffffffffffffffffffffffffff1673ffffffffffffffffffffffffffffffffffffffff16815260200190815260200160002060009054906101000a900460ff161515036110a5576001819080600181540180825580915050600190039060005260206000200160009091909190916101000a81548173ffffffffffffffffffffffffffffffffffffffff021916908373ffffffffffffffffffffffffffffffffffffffff1602179055506001600260008373ffffffffffffffffffffffffffffffffffffffff1673ffffffffffffffffffffffffffffffffffffffff16815260200190815260200160002060006101000a81548160ff0219169083151502179055505b50565b6000808373ffffffffffffffffffffffffffffffffffffffff16836040516110cf90611d54565b60006040518083038185875af1925050503d806000811461110c576040519150601f19603f3d011682016040523d82523d6000602084013e611111565b606091505b509150915081611156576040517f08c379a000000000000000000000000000000000000000000000000000000000815260040161114d90611db5565b60405180910390fd5b50505050565b6000604051905090565b600080fd5b600080fd5b6000819050919050565b61118381611170565b811461118e57600080fd5b50565b6000813590506111a08161117a565b92915050565b6000602082840312156111bc576111bb611166565b5b60006111ca84828501611191565b91505092915050565b600073ffffffffffffffffffffffffffffffffffffffff82169050919050565b60006111fe826111d3565b9050919050565b61120e816111f3565b82525050565b60006020820190506112296000830184611205565b92915050565b61123881611170565b82525050565b6000602082019050611253600083018461122f565b92915050565b611262816111f3565b811461126d57600080fd5b50565b60008135905061127f81611259565b92915050565b60006020828403121561129b5761129a611166565b5b60006112a984828501611270565b91505092915050565b60008115159050919050565b6112c7816112b2565b82525050565b60006020820190506112e260008301846112be565b92915050565b600081519050919050565b600082825260208201905092915050565b60005b83811015611322578082015181840152602081019050611307565b60008484015250505050565b6000601f19601f8301169050919050565b600061134a826112e8565b61135481856112f3565b9350611364818560208601611304565b61136d8161132e565b840191505092915050565b600060a0820190508181036000830152611392818861133f565b905081810360208301526113a6818761133f565b905081810360408301526113ba818661133f565b905081810360608301526113ce818561133f565b905081810360808301526113e2818461133f565b90509695505050505050565b600080fd5b600080fd5b7f4e487b7100000000000000000000000000000000000000000000000000000000600052604160045260246000fd5b6114308261132e565b810181811067ffffffffffffffff8211171561144f5761144e6113f8565b5b80604052505050565b600061146261115c565b905061146e8282611427565b919050565b600067ffffffffffffffff82111561148e5761148d6113f8565b5b6114978261132e565b9050602081019050919050565b82818337600083830152505050565b60006114c66114c184611473565b611458565b9050828152602081018484840111156114e2576114e16113f3565b5b6114ed8482856114a4565b509392505050565b600082601f83011261150a576115096113ee565b5b813561151a8482602086016114b3565b91505092915050565b6000806000806080858703121561153d5761153c611166565b5b600061154b87828801611270565b945050602085013567ffffffffffffffff81111561156c5761156b61116b565b5b611578878288016114f5565b935050604085013567ffffffffffffffff8111156115995761159861116b565b5b6115a5878288016114f5565b925050606085013567ffffffffffffffff8111156115c6576115c561116b565b5b6115d2878288016114f5565b91505092959194509250565b600081519050919050565b600082825260208201905092915050565b6000819050602082019050919050565b600082825260208201905092915050565b6000611626826112e8565b611630818561160a565b9350611640818560208601611304565b6116498161132e565b840191505092915050565b6000611660838361161b565b905092915050565b6000602082019050919050565b6000611680826115de565b61168a81856115e9565b93508360208202850161169c856115fa565b8060005b858110156116d857848403895281516116b98582611654565b94506116c483611668565b925060208a019950506001810190506116a0565b50829750879550505050505092915050565b600060208201905081810360008301526117048184611675565b905092915050565b600081519050919050565b600082825260208201905092915050565b6000819050602082019050919050565b611741816111f3565b82525050565b60006117538383611738565b60208301905092915050565b6000602082019050919050565b60006117778261170c565b6117818185611717565b935061178c83611728565b8060005b838110156117bd5781516117a48882611747565b97506117af8361175f565b925050600181019050611790565b5085935050505092915050565b600060208201905081810360008301526117e4818461176c565b905092915050565b6000806000806080858703121561180657611805611166565b5b600061181487828801611191565b945050602085013567ffffffffffffffff8111156118355761183461116b565b5b611841878288016114f5565b935050604085013567ffffffffffffffff8111156118625761186161116b565b5b61186e878288016114f5565b925050606061187f87828801611191565b91505092959194509250565b600081519050919050565b600082825260208201905092915050565b6000819050602082019050919050565b6118c081611170565b82525050565b60006118d283836118b7565b60208301905092915050565b6000602082019050919050565b60006118f68261188b565b6119008185611896565b935061190b836118a7565b8060005b8381101561193c57815161192388826118c6565b975061192e836118de565b92505060018101905061190f565b5085935050505092915050565b6000602082019050818103600083015261196381846118eb565b905092915050565b7f4e487b7100000000000000000000000000000000000000000000000000000000600052602260045260246000fd5b600060028204905060018216806119b257607f821691505b6020821081036119c5576119c461196b565b5b50919050565b60008190508160005260206000209050919050565b60006020601f8301049050919050565b600082821b905092915050565b600060088302611a2d7fffffffffffffffffffffffffffffffffffffffffffffffffffffffffffffffff826119f0565b611a3786836119f0565b95508019841693508086168417925050509392505050565b6000819050919050565b6000611a74611a6f611a6a84611170565b611a4f565b611170565b9050919050565b6000819050919050565b611a8e83611a59565b611aa2611a9a82611a7b565b8484546119fd565b825550505050565b600090565b611ab7611aaa565b611ac2818484611a85565b505050565b5b81811015611ae657611adb600082611aaf565b600181019050611ac8565b5050565b601f821115611b2b57611afc816119cb565b611b05846119e0565b81016020851015611b14578190505b611b28611b20856119e0565b830182611ac7565b50505b505050565b600082821c905092915050565b6000611b4e60001984600802611b30565b1980831691505092915050565b6000611b678383611b3d565b9150826002028217905092915050565b611b80826112e8565b67ffffffffffffffff811115611b9957611b986113f8565b5b611ba3825461199a565b611bae828285611aea565b600060209050601f831160018114611be15760008415611bcf578287015190505b611bd98582611b5b565b865550611c41565b601f198416611bef866119cb565b60005b82811015611c1757848901518255600182019150602085019450602081019050611bf2565b86831015611c345784890151611c30601f891682611b3d565b8355505b6001600288020188555050505b505050505050565b7f4e487b7100000000000000000000000000000000000000000000000000000000600052601160045260246000fd5b6000611c8382611170565b9150611c8e83611170565b9250828203905081811115611ca657611ca5611c49565b5b92915050565b6000611cb782611170565b91507fffffffffffffffffffffffffffffffffffffffffffffffffffffffffffffffff8203611ce957611ce8611c49565b5b600182019050919050565b7f4e487b7100000000000000000000000000000000000000000000000000000000600052603260045260246000fd5b600081905092915050565b50565b6000611d3e600083611d23565b9150611d4982611d2e565b600082019050919050565b6000611d5f82611d31565b9150819050919050565b7f4661696c656420746f2073656e64204574686572000000000000000000000000600082015250565b6000611d9f6014836112f3565b9150611daa82611d69565b602082019050919050565b60006020820190508181036000830152611dce81611d92565b905091905056fea2646970667358221220a9a3437c803c601bde63ade7b9e4dfb1ab67f8a52b965fa2a64f1a751116471d64736f6c63430008110033",
  "immutableReferences": {},
  "source": "pragma solidity ^0.8.17;\nimport \"./receive.sol\";\n\ncontract FlightDelay is Receive{\n\n    struct Insurance {\n        string airline;\n        string flight_number;\n        string departure_date;\n        string delay_status;\n        string payment_status;\n    }\n    \n    Insurance[] public insurances;\n\n    address [] public owners;\n    \n    mapping (address => bool) public isOwner;\n    mapping (uint => address) public insuranceToOwner;\n    mapping (address => uint) public ownerInsuranceCount;\n\n    function createInsurance(address _owner, string memory _airline, string memory _flight_number, string memory _departure_date) public payable {\n        _addUniqueOwner(_owner);\n        // create user insurance data\n        insurances.push(Insurance(_airline, _flight_number, _departure_date, \"-\", \"Un Paid\"));\n        uint _id = insurances.length - 1;\n        insuranceToOwner[_id] = _owner;\n        ownerInsuranceCount[_owner] ++;\n    }\n\n    // add unique owner in array\n    function _addUniqueOwner(address _owner) internal {\n        if(isOwner[_owner] == false) {\n            // push the unique item to the array\n            owners.push(_owner);\n            // don't forget to set the mapping value as well\n            isOwner[_owner] = true;\n        }\n    }\n\n    // get insurance ids by user address\n    function getInsuranceIds(address _owner) public view returns (uint[] memory) {\n        uint[] memory re = new uint[](ownerInsuranceCount[_owner]);\n        uint counter = 0;\n        for(uint i = 0; i < insurances.length; i++) {\n            if(insuranceToOwner[i] == _owner) {\n                re[counter] = i;\n                counter ++;\n            }\n        }\n        return re;\n    }\n\n    // get insurance data by id\n    function getInsurance(uint _id) public view returns(string[] memory) {\n        string[] memory re = new string[](5);\n        re[0] = insurances[_id].airline;\n        re[1] = insurances[_id].flight_number;\n        re[2] = insurances[_id].departure_date;\n        re[3] = insurances[_id].delay_status;\n        re[4] = insurances[_id].payment_status;\n        return re;\n    }\n\n    // return owner array\n    function getOwners() public view returns (address[] memory) {\n        return owners;\n    }\n\n    // update insurance data if the flight is dalay or on time\n    function updateInsurance(uint _id, string memory _status, string memory _payment, uint _amount) public {\n        address payable _to = payable(insuranceToOwner[_id]);\n        _withdrawMoneyTo(_to, _amount);\n        insurances[_id].delay_status = _status;\n        insurances[_id].payment_status = _payment;\n    }\n\n    // transfer ether from contract to account\n    function _withdrawMoneyTo(address payable _to, uint _amount) internal {\n        // _to.transfer(getBalance());\n        (bool sent, bytes memory data) = _to.call{value: _amount}(\"\");\n        require(sent, \"Failed to send Ether\");\n    }\n\n\n    // function withdrawMoneyTo(address payable _to, uint _amount) public {\n    //     (bool sent, bytes memory data) = _to.call{value: _amount}(\"\");\n    //     require(sent, \"Failed to send Ether\");\n    // }\n}",
  "sourcePath": "/Users/changhsin-i/Downloads//LifeChain/contracts/flightDelay.sol",
  "compiler": {
    "name": "solc",
    "version": "0.8.17+commit.8df45f5f.Emscripten.clang"
  },
  "schemaVersion": "3.4.10",
  "updatedAt": "2022-10-18T11:18:19.857Z",
  "networkType": "ethereum",
  "devdoc": {
    "kind": "dev",
    "methods": {},
    "version": 1
  },
  "userdoc": {
    "kind": "user",
    "methods": {},
    "version": 1
  }
}