{
  "contractName": "FlightDelay",
  "abi": [
    {
      "inputs": [
        {
          "internalType": "uint256",
          "name": "",
          "type": "uint256"
        }
      ],
      "name": "insuranceToOwner",
      "outputs": [
        {
          "internalType": "address",
          "name": "",
          "type": "address"
        }
      ],
      "stateMutability": "view",
      "type": "function",
      "constant": true
    },
    {
      "inputs": [
        {
          "internalType": "uint256",
          "name": "",
          "type": "uint256"
        }
      ],
      "name": "insurances",
      "outputs": [
        {
          "internalType": "string",
          "name": "airline",
          "type": "string"
        },
        {
          "internalType": "string",
          "name": "flight_number",
          "type": "string"
        },
        {
          "internalType": "string",
          "name": "departure_date",
          "type": "string"
        },
        {
          "internalType": "string",
          "name": "delay_status",
          "type": "string"
        },
        {
          "internalType": "string",
          "name": "payment_status",
          "type": "string"
        }
      ],
      "stateMutability": "view",
      "type": "function",
      "constant": true
    },
    {
      "inputs": [
        {
          "internalType": "string",
          "name": "",
          "type": "string"
        }
      ],
      "name": "isAirline",
      "outputs": [
        {
          "internalType": "bool",
          "name": "",
          "type": "bool"
        }
      ],
      "stateMutability": "view",
      "type": "function",
      "constant": true
    },
    {
      "inputs": [
        {
          "internalType": "address",
          "name": "",
          "type": "address"
        }
      ],
      "name": "isOwner",
      "outputs": [
        {
          "internalType": "bool",
          "name": "",
          "type": "bool"
        }
      ],
      "stateMutability": "view",
      "type": "function",
      "constant": true
    },
    {
      "inputs": [
        {
          "internalType": "address",
          "name": "",
          "type": "address"
        }
      ],
      "name": "ownerInsuranceCount",
      "outputs": [
        {
          "internalType": "uint256",
          "name": "",
          "type": "uint256"
        }
      ],
      "stateMutability": "view",
      "type": "function",
      "constant": true
    },
    {
      "inputs": [
        {
          "internalType": "uint256",
          "name": "",
          "type": "uint256"
        }
      ],
      "name": "owners",
      "outputs": [
        {
          "internalType": "address",
          "name": "",
          "type": "address"
        }
      ],
      "stateMutability": "view",
      "type": "function",
      "constant": true
    },
    {
      "inputs": [
        {
          "internalType": "address",
          "name": "_owner",
          "type": "address"
        },
        {
          "internalType": "string",
          "name": "_airline",
          "type": "string"
        },
        {
          "internalType": "string",
          "name": "_flight_number",
          "type": "string"
        },
        {
          "internalType": "string",
          "name": "_departure_date",
          "type": "string"
        }
      ],
      "name": "createInsurance",
      "outputs": [],
      "stateMutability": "nonpayable",
      "type": "function"
    },
    {
      "inputs": [
        {
          "internalType": "address",
          "name": "_owner",
          "type": "address"
        }
      ],
      "name": "getInsuranceIds",
      "outputs": [
        {
          "internalType": "uint256[]",
          "name": "",
          "type": "uint256[]"
        }
      ],
      "stateMutability": "view",
      "type": "function",
      "constant": true
    },
    {
      "inputs": [
        {
          "internalType": "uint256",
          "name": "_id",
          "type": "uint256"
        }
      ],
      "name": "getInsurance",
      "outputs": [
        {
          "internalType": "string[]",
          "name": "",
          "type": "string[]"
        }
      ],
      "stateMutability": "view",
      "type": "function",
      "constant": true
    },
    {
      "inputs": [],
      "name": "getOwners",
      "outputs": [
        {
          "internalType": "address[]",
          "name": "",
          "type": "address[]"
        }
      ],
      "stateMutability": "view",
      "type": "function",
      "constant": true
    },
    {
      "inputs": [
        {
          "internalType": "uint256",
          "name": "_id",
          "type": "uint256"
        },
        {
          "internalType": "string",
          "name": "_status",
          "type": "string"
        },
        {
          "internalType": "string",
          "name": "_payment",
          "type": "string"
        }
      ],
      "name": "updateInsurance",
      "outputs": [],
      "stateMutability": "nonpayable",
      "type": "function"
    }
  ],
  "bytecode": "0x608060405234801561001057600080fd5b50611c42806100206000396000f3fe608060405234801561001057600080fd5b50600436106100a95760003560e01c80636103224d116100715780636103224d146101a257806385fae602146101be578063861dd82d146101ee578063a0e67e2b1461020a578063c336b56814610228578063d73bbd2014610258576100a9565b8063025e7c27146100ae5780631e8e1a25146100de5780632f54bf6e1461010e5780633654eed01461013e57806359fb49f91461016e575b600080fd5b6100c860048036038101906100c3919061105a565b610288565b6040516100d591906110c8565b60405180910390f35b6100f860048036038101906100f39190611229565b6102c7565b604051610105919061128d565b60405180910390f35b610128600480360381019061012391906112d4565b6102fd565b604051610135919061128d565b60405180910390f35b610158600480360381019061015391906112d4565b61031d565b6040516101659190611310565b60405180910390f35b6101886004803603810190610183919061105a565b610335565b6040516101999594939291906113aa565b60405180910390f35b6101bc60048036038101906101b79190611420565b610623565b005b6101d860048036038101906101d3919061105a565b61081c565b6040516101e591906115e7565b60405180910390f35b61020860048036038101906102039190611609565b610c7b565b005b610212610ce6565b60405161021f9190611752565b60405180910390f35b610242600480360381019061023d919061105a565b610d74565b60405161024f91906110c8565b60405180910390f35b610272600480360381019061026d91906112d4565b610da7565b60405161027f9190611832565b60405180910390f35b6001818154811061029857600080fd5b906000526020600020016000915054906101000a900473ffffffffffffffffffffffffffffffffffffffff1681565b6002818051602081018201805184825260208301602085012081835280955050505050506000915054906101000a900460ff1681565b60036020528060005260406000206000915054906101000a900460ff1681565b60056020528060005260406000206000915090505481565b6000818154811061034557600080fd5b906000526020600020906005020160009150905080600001805461036890611883565b80601f016020809104026020016040519081016040528092919081815260200182805461039490611883565b80156103e15780601f106103b6576101008083540402835291602001916103e1565b820191906000526020600020905b8154815290600101906020018083116103c457829003601f168201915b5050505050908060010180546103f690611883565b80601f016020809104026020016040519081016040528092919081815260200182805461042290611883565b801561046f5780601f106104445761010080835404028352916020019161046f565b820191906000526020600020905b81548152906001019060200180831161045257829003601f168201915b50505050509080600201805461048490611883565b80601f01602080910402602001604051908101604052809291908181526020018280546104b090611883565b80156104fd5780601f106104d2576101008083540402835291602001916104fd565b820191906000526020600020905b8154815290600101906020018083116104e057829003601f168201915b50505050509080600301805461051290611883565b80601f016020809104026020016040519081016040528092919081815260200182805461053e90611883565b801561058b5780601f106105605761010080835404028352916020019161058b565b820191906000526020600020905b81548152906001019060200180831161056e57829003601f168201915b5050505050908060040180546105a090611883565b80601f01602080910402602001604051908101604052809291908181526020018280546105cc90611883565b80156106195780601f106105ee57610100808354040283529160200191610619565b820191906000526020600020905b8154815290600101906020018083116105fc57829003601f168201915b5050505050905085565b61062c84610ef9565b60006040518060a001604052808581526020018481526020018381526020016040518060400160405280600181526020017f2d0000000000000000000000000000000000000000000000000000000000000081525081526020016040518060400160405280600781526020017f756e5f7061696400000000000000000000000000000000000000000000000000815250815250908060018154018082558091505060019003906000526020600020906005020160009091909190915060008201518160000190816106fd9190611a60565b5060208201518160010190816107139190611a60565b5060408201518160020190816107299190611a60565b50606082015181600301908161073f9190611a60565b5060808201518160040190816107559190611a60565b5050506000600160008054905061076c9190611b61565b9050846004600083815260200190815260200160002060006101000a81548173ffffffffffffffffffffffffffffffffffffffff021916908373ffffffffffffffffffffffffffffffffffffffff160217905550600560008673ffffffffffffffffffffffffffffffffffffffff1673ffffffffffffffffffffffffffffffffffffffff168152602001908152602001600020600081548092919061081090611b95565b91905055505050505050565b60606000600567ffffffffffffffff81111561083b5761083a6110fe565b5b60405190808252806020026020018201604052801561086e57816020015b60608152602001906001900390816108595790505b5090506000838154811061088557610884611bdd565b5b906000526020600020906005020160000180546108a190611883565b80601f01602080910402602001604051908101604052809291908181526020018280546108cd90611883565b801561091a5780601f106108ef5761010080835404028352916020019161091a565b820191906000526020600020905b8154815290600101906020018083116108fd57829003601f168201915b50505050508160008151811061093357610932611bdd565b5b60200260200101819052506000838154811061095257610951611bdd565b5b9060005260206000209060050201600101805461096e90611883565b80601f016020809104026020016040519081016040528092919081815260200182805461099a90611883565b80156109e75780601f106109bc576101008083540402835291602001916109e7565b820191906000526020600020905b8154815290600101906020018083116109ca57829003601f168201915b505050505081600181518110610a00576109ff611bdd565b5b602002602001018190525060008381548110610a1f57610a1e611bdd565b5b90600052602060002090600502016002018054610a3b90611883565b80601f0160208091040260200160405190810160405280929190818152602001828054610a6790611883565b8015610ab45780601f10610a8957610100808354040283529160200191610ab4565b820191906000526020600020905b815481529060010190602001808311610a9757829003601f168201915b505050505081600281518110610acd57610acc611bdd565b5b602002602001018190525060008381548110610aec57610aeb611bdd565b5b90600052602060002090600502016003018054610b0890611883565b80601f0160208091040260200160405190810160405280929190818152602001828054610b3490611883565b8015610b815780601f10610b5657610100808354040283529160200191610b81565b820191906000526020600020905b815481529060010190602001808311610b6457829003601f168201915b505050505081600381518110610b9a57610b99611bdd565b5b602002602001018190525060008381548110610bb957610bb8611bdd565b5b90600052602060002090600502016004018054610bd590611883565b80601f0160208091040260200160405190810160405280929190818152602001828054610c0190611883565b8015610c4e5780601f10610c2357610100808354040283529160200191610c4e565b820191906000526020600020905b815481529060010190602001808311610c3157829003601f168201915b505050505081600481518110610c6757610c66611bdd565b5b602002602001018190525080915050919050565b8160008481548110610c9057610c8f611bdd565b5b90600052602060002090600502016003019081610cad9190611a60565b508060008481548110610cc357610cc2611bdd565b5b90600052602060002090600502016004019081610ce09190611a60565b50505050565b60606001805480602002602001604051908101604052809291908181526020018280548015610d6a57602002820191906000526020600020905b8160009054906101000a900473ffffffffffffffffffffffffffffffffffffffff1673ffffffffffffffffffffffffffffffffffffffff1681526020019060010190808311610d20575b5050505050905090565b60046020528060005260406000206000915054906101000a900473ffffffffffffffffffffffffffffffffffffffff1681565b60606000600560008473ffffffffffffffffffffffffffffffffffffffff1673ffffffffffffffffffffffffffffffffffffffff1681526020019081526020016000205467ffffffffffffffff811115610e0457610e036110fe565b5b604051908082528060200260200182016040528015610e325781602001602082028036833780820191505090505b5090506000805b600080549050811015610eee578473ffffffffffffffffffffffffffffffffffffffff166004600083815260200190815260200160002060009054906101000a900473ffffffffffffffffffffffffffffffffffffffff1673ffffffffffffffffffffffffffffffffffffffff1603610edb5780838381518110610ec057610ebf611bdd565b5b6020026020010181815250508180610ed790611b95565b9250505b8080610ee690611b95565b915050610e39565b508192505050919050565b60001515600360008373ffffffffffffffffffffffffffffffffffffffff1673ffffffffffffffffffffffffffffffffffffffff16815260200190815260200160002060009054906101000a900460ff1615150361100d576001819080600181540180825580915050600190039060005260206000200160009091909190916101000a81548173ffffffffffffffffffffffffffffffffffffffff021916908373ffffffffffffffffffffffffffffffffffffffff1602179055506001600360008373ffffffffffffffffffffffffffffffffffffffff1673ffffffffffffffffffffffffffffffffffffffff16815260200190815260200160002060006101000a81548160ff0219169083151502179055505b50565b6000604051905090565b600080fd5b600080fd5b6000819050919050565b61103781611024565b811461104257600080fd5b50565b6000813590506110548161102e565b92915050565b6000602082840312156110705761106f61101a565b5b600061107e84828501611045565b91505092915050565b600073ffffffffffffffffffffffffffffffffffffffff82169050919050565b60006110b282611087565b9050919050565b6110c2816110a7565b82525050565b60006020820190506110dd60008301846110b9565b92915050565b600080fd5b600080fd5b6000601f19601f8301169050919050565b7f4e487b7100000000000000000000000000000000000000000000000000000000600052604160045260246000fd5b611136826110ed565b810181811067ffffffffffffffff82111715611155576111546110fe565b5b80604052505050565b6000611168611010565b9050611174828261112d565b919050565b600067ffffffffffffffff821115611194576111936110fe565b5b61119d826110ed565b9050602081019050919050565b82818337600083830152505050565b60006111cc6111c784611179565b61115e565b9050828152602081018484840111156111e8576111e76110e8565b5b6111f38482856111aa565b509392505050565b600082601f8301126112105761120f6110e3565b5b81356112208482602086016111b9565b91505092915050565b60006020828403121561123f5761123e61101a565b5b600082013567ffffffffffffffff81111561125d5761125c61101f565b5b611269848285016111fb565b91505092915050565b60008115159050919050565b61128781611272565b82525050565b60006020820190506112a2600083018461127e565b92915050565b6112b1816110a7565b81146112bc57600080fd5b50565b6000813590506112ce816112a8565b92915050565b6000602082840312156112ea576112e961101a565b5b60006112f8848285016112bf565b91505092915050565b61130a81611024565b82525050565b60006020820190506113256000830184611301565b92915050565b600081519050919050565b600082825260208201905092915050565b60005b8381101561136557808201518184015260208101905061134a565b60008484015250505050565b600061137c8261132b565b6113868185611336565b9350611396818560208601611347565b61139f816110ed565b840191505092915050565b600060a08201905081810360008301526113c48188611371565b905081810360208301526113d88187611371565b905081810360408301526113ec8186611371565b905081810360608301526114008185611371565b905081810360808301526114148184611371565b90509695505050505050565b6000806000806080858703121561143a5761143961101a565b5b6000611448878288016112bf565b945050602085013567ffffffffffffffff8111156114695761146861101f565b5b611475878288016111fb565b935050604085013567ffffffffffffffff8111156114965761149561101f565b5b6114a2878288016111fb565b925050606085013567ffffffffffffffff8111156114c3576114c261101f565b5b6114cf878288016111fb565b91505092959194509250565b600081519050919050565b600082825260208201905092915050565b6000819050602082019050919050565b600082825260208201905092915050565b60006115238261132b565b61152d8185611507565b935061153d818560208601611347565b611546816110ed565b840191505092915050565b600061155d8383611518565b905092915050565b6000602082019050919050565b600061157d826114db565b61158781856114e6565b935083602082028501611599856114f7565b8060005b858110156115d557848403895281516115b68582611551565b94506115c183611565565b925060208a0199505060018101905061159d565b50829750879550505050505092915050565b600060208201905081810360008301526116018184611572565b905092915050565b6000806000606084860312156116225761162161101a565b5b600061163086828701611045565b935050602084013567ffffffffffffffff8111156116515761165061101f565b5b61165d868287016111fb565b925050604084013567ffffffffffffffff81111561167e5761167d61101f565b5b61168a868287016111fb565b9150509250925092565b600081519050919050565b600082825260208201905092915050565b6000819050602082019050919050565b6116c9816110a7565b82525050565b60006116db83836116c0565b60208301905092915050565b6000602082019050919050565b60006116ff82611694565b611709818561169f565b9350611714836116b0565b8060005b8381101561174557815161172c88826116cf565b9750611737836116e7565b925050600181019050611718565b5085935050505092915050565b6000602082019050818103600083015261176c81846116f4565b905092915050565b600081519050919050565b600082825260208201905092915050565b6000819050602082019050919050565b6117a981611024565b82525050565b60006117bb83836117a0565b60208301905092915050565b6000602082019050919050565b60006117df82611774565b6117e9818561177f565b93506117f483611790565b8060005b8381101561182557815161180c88826117af565b9750611817836117c7565b9250506001810190506117f8565b5085935050505092915050565b6000602082019050818103600083015261184c81846117d4565b905092915050565b7f4e487b7100000000000000000000000000000000000000000000000000000000600052602260045260246000fd5b6000600282049050600182168061189b57607f821691505b6020821081036118ae576118ad611854565b5b50919050565b60008190508160005260206000209050919050565b60006020601f8301049050919050565b600082821b905092915050565b6000600883026119167fffffffffffffffffffffffffffffffffffffffffffffffffffffffffffffffff826118d9565b61192086836118d9565b95508019841693508086168417925050509392505050565b6000819050919050565b600061195d61195861195384611024565b611938565b611024565b9050919050565b6000819050919050565b61197783611942565b61198b61198382611964565b8484546118e6565b825550505050565b600090565b6119a0611993565b6119ab81848461196e565b505050565b5b818110156119cf576119c4600082611998565b6001810190506119b1565b5050565b601f821115611a14576119e5816118b4565b6119ee846118c9565b810160208510156119fd578190505b611a11611a09856118c9565b8301826119b0565b50505b505050565b600082821c905092915050565b6000611a3760001984600802611a19565b1980831691505092915050565b6000611a508383611a26565b9150826002028217905092915050565b611a698261132b565b67ffffffffffffffff811115611a8257611a816110fe565b5b611a8c8254611883565b611a978282856119d3565b600060209050601f831160018114611aca5760008415611ab8578287015190505b611ac28582611a44565b865550611b2a565b601f198416611ad8866118b4565b60005b82811015611b0057848901518255600182019150602085019450602081019050611adb565b86831015611b1d5784890151611b19601f891682611a26565b8355505b6001600288020188555050505b505050505050565b7f4e487b7100000000000000000000000000000000000000000000000000000000600052601160045260246000fd5b6000611b6c82611024565b9150611b7783611024565b9250828203905081811115611b8f57611b8e611b32565b5b92915050565b6000611ba082611024565b91507fffffffffffffffffffffffffffffffffffffffffffffffffffffffffffffffff8203611bd257611bd1611b32565b5b600182019050919050565b7f4e487b7100000000000000000000000000000000000000000000000000000000600052603260045260246000fdfea2646970667358221220d8b1e9445b6b232dafcde236f257b0c50c24a1801e9dfe160d3d0ebab188b9e964736f6c63430008110033",
  "immutableReferences": {},
  "source": "pragma solidity ^0.8.17;\n\ncontract FlightDelay {\n\n    struct Insurance {\n        string airline;\n        string flight_number;\n        string departure_date;\n        string delay_status;\n        string payment_status;\n    }\n    \n    Insurance[] public insurances;\n\n    address [] public owners;\n    \n    mapping (string => bool) public isAirline;\n    mapping (address => bool) public isOwner;\n    mapping (uint => address) public insuranceToOwner;\n    mapping (address => uint) public ownerInsuranceCount;\n\n    function createInsurance(address _owner, string memory _airline, string memory _flight_number, string memory _departure_date) public {\n        _addUniqueOwner(_owner);\n        // create user insurance data\n        insurances.push(Insurance(_airline, _flight_number, _departure_date, \"-\", \"un_paid\"));\n        uint _id = insurances.length - 1;\n        insuranceToOwner[_id] = _owner;\n        ownerInsuranceCount[_owner] ++;\n    }\n\n    // add unique owner in array\n    function _addUniqueOwner(address _owner) internal {\n        if(isOwner[_owner] == false) {\n            // push the unique item to the array\n            owners.push(_owner);\n            // don't forget to set the mapping value as well\n            isOwner[_owner] = true;\n        }\n    }\n\n    // get insurance ids by user address\n    function getInsuranceIds(address _owner) public view returns (uint[] memory) {\n        uint[] memory re = new uint[](ownerInsuranceCount[_owner]);\n        uint counter = 0;\n        for(uint i = 0; i < insurances.length; i++) {\n            if(insuranceToOwner[i] == _owner) {\n                re[counter] = i;\n                counter ++;\n            }\n        }\n        return re;\n    }\n\n    // get insurance data by id\n    function getInsurance(uint _id) public view returns(string[] memory) {\n        string[] memory re = new string[](5);\n        re[0] = insurances[_id].airline;\n        re[1] = insurances[_id].flight_number;\n        re[2] = insurances[_id].departure_date;\n        re[3] = insurances[_id].delay_status;\n        re[4] = insurances[_id].payment_status;\n        return re;\n    }\n\n    // return owner array\n    function getOwners() public view returns (address[] memory) {\n        return owners;\n    }\n\n    function updateInsurance(uint _id, string memory _status, string memory _payment) public {\n        insurances[_id].delay_status = _status;\n        insurances[_id].payment_status = _payment;\n    }\n}",
  "sourcePath": "/Users/changhsin-i/Downloads//LifeChain/contracts/flightDelay.sol",
  "compiler": {
    "name": "solc",
    "version": "0.8.17+commit.8df45f5f.Emscripten.clang"
  },
  "schemaVersion": "3.4.10",
  "updatedAt": "2022-10-15T08:24:49.672Z",
  "networkType": "ethereum",
  "devdoc": {
    "kind": "dev",
    "methods": {},
    "version": 1
  },
  "userdoc": {
    "kind": "user",
    "methods": {},
    "version": 1
  }
}