{
  "contractName": "FlightDelay",
  "abi": [
    {
      "inputs": [
        {
          "internalType": "uint256",
          "name": "",
          "type": "uint256"
        }
      ],
      "name": "airlines",
      "outputs": [
        {
          "internalType": "string",
          "name": "",
          "type": "string"
        }
      ],
      "stateMutability": "view",
      "type": "function",
      "constant": true
    },
    {
      "inputs": [
        {
          "internalType": "uint256",
          "name": "",
          "type": "uint256"
        }
      ],
      "name": "insuranceToOwner",
      "outputs": [
        {
          "internalType": "address",
          "name": "",
          "type": "address"
        }
      ],
      "stateMutability": "view",
      "type": "function",
      "constant": true
    },
    {
      "inputs": [
        {
          "internalType": "uint256",
          "name": "",
          "type": "uint256"
        }
      ],
      "name": "insurances",
      "outputs": [
        {
          "internalType": "string",
          "name": "airline",
          "type": "string"
        },
        {
          "internalType": "string",
          "name": "flight_number",
          "type": "string"
        },
        {
          "internalType": "string",
          "name": "departure_date",
          "type": "string"
        },
        {
          "internalType": "bool",
          "name": "delay_status",
          "type": "bool"
        },
        {
          "internalType": "string",
          "name": "payment_status",
          "type": "string"
        }
      ],
      "stateMutability": "view",
      "type": "function",
      "constant": true
    },
    {
      "inputs": [
        {
          "internalType": "string",
          "name": "",
          "type": "string"
        }
      ],
      "name": "isAirline",
      "outputs": [
        {
          "internalType": "bool",
          "name": "",
          "type": "bool"
        }
      ],
      "stateMutability": "view",
      "type": "function",
      "constant": true
    },
    {
      "inputs": [
        {
          "internalType": "address",
          "name": "",
          "type": "address"
        }
      ],
      "name": "ownerInsuranceCount",
      "outputs": [
        {
          "internalType": "uint256",
          "name": "",
          "type": "uint256"
        }
      ],
      "stateMutability": "view",
      "type": "function",
      "constant": true
    },
    {
      "inputs": [
        {
          "internalType": "address",
          "name": "_owner",
          "type": "address"
        },
        {
          "internalType": "string",
          "name": "_airline",
          "type": "string"
        },
        {
          "internalType": "string",
          "name": "_flight_number",
          "type": "string"
        },
        {
          "internalType": "string",
          "name": "_departure_date",
          "type": "string"
        }
      ],
      "name": "createInsurance",
      "outputs": [],
      "stateMutability": "nonpayable",
      "type": "function"
    },
    {
      "inputs": [
        {
          "internalType": "address",
          "name": "_owner",
          "type": "address"
        }
      ],
      "name": "getInsuranceIds",
      "outputs": [
        {
          "internalType": "uint256[]",
          "name": "",
          "type": "uint256[]"
        }
      ],
      "stateMutability": "view",
      "type": "function",
      "constant": true
    },
    {
      "inputs": [
        {
          "internalType": "uint256",
          "name": "_id",
          "type": "uint256"
        }
      ],
      "name": "getInsurance",
      "outputs": [
        {
          "internalType": "string[]",
          "name": "",
          "type": "string[]"
        }
      ],
      "stateMutability": "view",
      "type": "function",
      "constant": true
    },
    {
      "inputs": [],
      "name": "getAirlines",
      "outputs": [
        {
          "internalType": "string[]",
          "name": "",
          "type": "string[]"
        }
      ],
      "stateMutability": "view",
      "type": "function",
      "constant": true
    }
  ],
  "bytecode": "0x608060405234801561001057600080fd5b50611a1d806100206000396000f3fe608060405234801561001057600080fd5b50600436106100935760003560e01c806359fb49f91161006657806359fb49f9146101465780636103224d1461017a57806385fae60214610196578063c336b568146101c6578063d73bbd20146101f657610093565b80630d5dc054146100985780631e8e1a25146100b65780633654eed0146100e65780633a9a77ca14610116575b600080fd5b6100a0610226565b6040516100ad919061103a565b60405180910390f35b6100d060048036038101906100cb91906111a5565b6102ff565b6040516100dd9190611209565b60405180910390f35b61010060048036038101906100fb9190611282565b610335565b60405161010d91906112c8565b60405180910390f35b610130600480360381019061012b919061130f565b61034d565b60405161013d9190611386565b60405180910390f35b610160600480360381019061015b919061130f565b6103f9565b6040516101719594939291906113a8565b60405180910390f35b610194600480360381019061018f9190611417565b61066c565b005b6101b060048036038101906101ab919061130f565b61083d565b6040516101bd919061103a565b60405180910390f35b6101e060048036038101906101db919061130f565b610cbc565b6040516101ed91906114e1565b60405180910390f35b610210600480360381019061020b9190611282565b610cef565b60405161021d91906115ba565b60405180910390f35b60606001805480602002602001604051908101604052809291908181526020016000905b828210156102f65783829060005260206000200180546102699061160b565b80601f01602080910402602001604051908101604052809291908181526020018280546102959061160b565b80156102e25780601f106102b7576101008083540402835291602001916102e2565b820191906000526020600020905b8154815290600101906020018083116102c557829003601f168201915b50505050508152602001906001019061024a565b50505050905090565b6002818051602081018201805184825260208301602085012081835280955050505050506000915054906101000a900460ff1681565b60046020528060005260406000206000915090505481565b6001818154811061035d57600080fd5b9060005260206000200160009150905080546103789061160b565b80601f01602080910402602001604051908101604052809291908181526020018280546103a49061160b565b80156103f15780601f106103c6576101008083540402835291602001916103f1565b820191906000526020600020905b8154815290600101906020018083116103d457829003601f168201915b505050505081565b6000818154811061040957600080fd5b906000526020600020906005020160009150905080600001805461042c9061160b565b80601f01602080910402602001604051908101604052809291908181526020018280546104589061160b565b80156104a55780601f1061047a576101008083540402835291602001916104a5565b820191906000526020600020905b81548152906001019060200180831161048857829003601f168201915b5050505050908060010180546104ba9061160b565b80601f01602080910402602001604051908101604052809291908181526020018280546104e69061160b565b80156105335780601f1061050857610100808354040283529160200191610533565b820191906000526020600020905b81548152906001019060200180831161051657829003601f168201915b5050505050908060020180546105489061160b565b80601f01602080910402602001604051908101604052809291908181526020018280546105749061160b565b80156105c15780601f10610596576101008083540402835291602001916105c1565b820191906000526020600020905b8154815290600101906020018083116105a457829003601f168201915b5050505050908060030160009054906101000a900460ff16908060040180546105e99061160b565b80601f01602080910402602001604051908101604052809291908181526020018280546106159061160b565b80156106625780601f1061063757610100808354040283529160200191610662565b820191906000526020600020905b81548152906001019060200180831161064557829003601f168201915b5050505050905085565b61067583610e41565b60006040518060a001604052808581526020018481526020018381526020016000151581526020016040518060400160405280600781526020017f756e5f70616964000000000000000000000000000000000000000000000000008152508152509080600181540180825580915050600190039060005260206000209060050201600090919091909150600082015181600001908161071491906117e8565b50602082015181600101908161072a91906117e8565b50604082015181600201908161074091906117e8565b5060608201518160030160006101000a81548160ff021916908315150217905550608082015181600401908161077691906117e8565b5050506000600160008054905061078d91906118e9565b9050846003600083815260200190815260200160002060006101000a81548173ffffffffffffffffffffffffffffffffffffffff021916908373ffffffffffffffffffffffffffffffffffffffff160217905550600460008673ffffffffffffffffffffffffffffffffffffffff1673ffffffffffffffffffffffffffffffffffffffff16815260200190815260200160002060008154809291906108319061191d565b91905055505050505050565b60606000600567ffffffffffffffff81111561085c5761085b61107a565b5b60405190808252806020026020018201604052801561088f57816020015b606081526020019060019003908161087a5790505b509050600083815481106108a6576108a5611965565b5b906000526020600020906005020160000180546108c29061160b565b80601f01602080910402602001604051908101604052809291908181526020018280546108ee9061160b565b801561093b5780601f106109105761010080835404028352916020019161093b565b820191906000526020600020905b81548152906001019060200180831161091e57829003601f168201915b50505050508160008151811061095457610953611965565b5b60200260200101819052506000838154811061097357610972611965565b5b9060005260206000209060050201600101805461098f9061160b565b80601f01602080910402602001604051908101604052809291908181526020018280546109bb9061160b565b8015610a085780601f106109dd57610100808354040283529160200191610a08565b820191906000526020600020905b8154815290600101906020018083116109eb57829003601f168201915b505050505081600181518110610a2157610a20611965565b5b602002602001018190525060008381548110610a4057610a3f611965565b5b90600052602060002090600502016002018054610a5c9061160b565b80601f0160208091040260200160405190810160405280929190818152602001828054610a889061160b565b8015610ad55780601f10610aaa57610100808354040283529160200191610ad5565b820191906000526020600020905b815481529060010190602001808311610ab857829003601f168201915b505050505081600281518110610aee57610aed611965565b5b60200260200101819052506000151560008481548110610b1157610b10611965565b5b906000526020600020906005020160030160009054906101000a900460ff16151514610b90576040518060400160405280600181526020017f540000000000000000000000000000000000000000000000000000000000000081525081600381518110610b8157610b80611965565b5b60200260200101819052610be5565b6040518060400160405280600181526020017f460000000000000000000000000000000000000000000000000000000000000081525081600381518110610bda57610bd9611965565b5b602002602001018190525b5060008381548110610bfa57610bf9611965565b5b90600052602060002090600502016004018054610c169061160b565b80601f0160208091040260200160405190810160405280929190818152602001828054610c429061160b565b8015610c8f5780601f10610c6457610100808354040283529160200191610c8f565b820191906000526020600020905b815481529060010190602001808311610c7257829003601f168201915b505050505081600481518110610ca857610ca7611965565b5b602002602001018190525080915050919050565b60036020528060005260406000206000915054906101000a900473ffffffffffffffffffffffffffffffffffffffff1681565b60606000600460008473ffffffffffffffffffffffffffffffffffffffff1673ffffffffffffffffffffffffffffffffffffffff1681526020019081526020016000205467ffffffffffffffff811115610d4c57610d4b61107a565b5b604051908082528060200260200182016040528015610d7a5781602001602082028036833780820191505090505b5090506000805b600080549050811015610e36578473ffffffffffffffffffffffffffffffffffffffff166003600083815260200190815260200160002060009054906101000a900473ffffffffffffffffffffffffffffffffffffffff1673ffffffffffffffffffffffffffffffffffffffff1603610e235780838381518110610e0857610e07611965565b5b6020026020010181815250508180610e1f9061191d565b9250505b8080610e2e9061191d565b915050610d81565b508192505050919050565b60001515600282604051610e5591906119d0565b908152602001604051809103902060009054906101000a900460ff16151503610ee557600181908060018154018082558091505060019003906000526020600020016000909190919091509081610eac91906117e8565b506001600282604051610ebf91906119d0565b908152602001604051809103902060006101000a81548160ff0219169083151502179055505b50565b600081519050919050565b600082825260208201905092915050565b6000819050602082019050919050565b600081519050919050565b600082825260208201905092915050565b60005b83811015610f4e578082015181840152602081019050610f33565b60008484015250505050565b6000601f19601f8301169050919050565b6000610f7682610f14565b610f808185610f1f565b9350610f90818560208601610f30565b610f9981610f5a565b840191505092915050565b6000610fb08383610f6b565b905092915050565b6000602082019050919050565b6000610fd082610ee8565b610fda8185610ef3565b935083602082028501610fec85610f04565b8060005b8581101561102857848403895281516110098582610fa4565b945061101483610fb8565b925060208a01995050600181019050610ff0565b50829750879550505050505092915050565b600060208201905081810360008301526110548184610fc5565b905092915050565b6000604051905090565b600080fd5b600080fd5b600080fd5b600080fd5b7f4e487b7100000000000000000000000000000000000000000000000000000000600052604160045260246000fd5b6110b282610f5a565b810181811067ffffffffffffffff821117156110d1576110d061107a565b5b80604052505050565b60006110e461105c565b90506110f082826110a9565b919050565b600067ffffffffffffffff8211156111105761110f61107a565b5b61111982610f5a565b9050602081019050919050565b82818337600083830152505050565b6000611148611143846110f5565b6110da565b90508281526020810184848401111561116457611163611075565b5b61116f848285611126565b509392505050565b600082601f83011261118c5761118b611070565b5b813561119c848260208601611135565b91505092915050565b6000602082840312156111bb576111ba611066565b5b600082013567ffffffffffffffff8111156111d9576111d861106b565b5b6111e584828501611177565b91505092915050565b60008115159050919050565b611203816111ee565b82525050565b600060208201905061121e60008301846111fa565b92915050565b600073ffffffffffffffffffffffffffffffffffffffff82169050919050565b600061124f82611224565b9050919050565b61125f81611244565b811461126a57600080fd5b50565b60008135905061127c81611256565b92915050565b60006020828403121561129857611297611066565b5b60006112a68482850161126d565b91505092915050565b6000819050919050565b6112c2816112af565b82525050565b60006020820190506112dd60008301846112b9565b92915050565b6112ec816112af565b81146112f757600080fd5b50565b600081359050611309816112e3565b92915050565b60006020828403121561132557611324611066565b5b6000611333848285016112fa565b91505092915050565b600082825260208201905092915050565b600061135882610f14565b611362818561133c565b9350611372818560208601610f30565b61137b81610f5a565b840191505092915050565b600060208201905081810360008301526113a0818461134d565b905092915050565b600060a08201905081810360008301526113c2818861134d565b905081810360208301526113d6818761134d565b905081810360408301526113ea818661134d565b90506113f960608301856111fa565b818103608083015261140b818461134d565b90509695505050505050565b6000806000806080858703121561143157611430611066565b5b600061143f8782880161126d565b945050602085013567ffffffffffffffff8111156114605761145f61106b565b5b61146c87828801611177565b935050604085013567ffffffffffffffff81111561148d5761148c61106b565b5b61149987828801611177565b925050606085013567ffffffffffffffff8111156114ba576114b961106b565b5b6114c687828801611177565b91505092959194509250565b6114db81611244565b82525050565b60006020820190506114f660008301846114d2565b92915050565b600081519050919050565b600082825260208201905092915050565b6000819050602082019050919050565b611531816112af565b82525050565b60006115438383611528565b60208301905092915050565b6000602082019050919050565b6000611567826114fc565b6115718185611507565b935061157c83611518565b8060005b838110156115ad5781516115948882611537565b975061159f8361154f565b925050600181019050611580565b5085935050505092915050565b600060208201905081810360008301526115d4818461155c565b905092915050565b7f4e487b7100000000000000000000000000000000000000000000000000000000600052602260045260246000fd5b6000600282049050600182168061162357607f821691505b602082108103611636576116356115dc565b5b50919050565b60008190508160005260206000209050919050565b60006020601f8301049050919050565b600082821b905092915050565b60006008830261169e7fffffffffffffffffffffffffffffffffffffffffffffffffffffffffffffffff82611661565b6116a88683611661565b95508019841693508086168417925050509392505050565b6000819050919050565b60006116e56116e06116db846112af565b6116c0565b6112af565b9050919050565b6000819050919050565b6116ff836116ca565b61171361170b826116ec565b84845461166e565b825550505050565b600090565b61172861171b565b6117338184846116f6565b505050565b5b818110156117575761174c600082611720565b600181019050611739565b5050565b601f82111561179c5761176d8161163c565b61177684611651565b81016020851015611785578190505b61179961179185611651565b830182611738565b50505b505050565b600082821c905092915050565b60006117bf600019846008026117a1565b1980831691505092915050565b60006117d883836117ae565b9150826002028217905092915050565b6117f182610f14565b67ffffffffffffffff81111561180a5761180961107a565b5b611814825461160b565b61181f82828561175b565b600060209050601f8311600181146118525760008415611840578287015190505b61184a85826117cc565b8655506118b2565b601f1984166118608661163c565b60005b8281101561188857848901518255600182019150602085019450602081019050611863565b868310156118a557848901516118a1601f8916826117ae565b8355505b6001600288020188555050505b505050505050565b7f4e487b7100000000000000000000000000000000000000000000000000000000600052601160045260246000fd5b60006118f4826112af565b91506118ff836112af565b9250828203905081811115611917576119166118ba565b5b92915050565b6000611928826112af565b91507fffffffffffffffffffffffffffffffffffffffffffffffffffffffffffffffff820361195a576119596118ba565b5b600182019050919050565b7f4e487b7100000000000000000000000000000000000000000000000000000000600052603260045260246000fd5b600081905092915050565b60006119aa82610f14565b6119b48185611994565b93506119c4818560208601610f30565b80840191505092915050565b60006119dc828461199f565b91508190509291505056fea2646970667358221220e581c2a2662487f2409f9a0bf81ba10873b359a87d5a542efa06c3f82e13f21a64736f6c63430008110033",
  "immutableReferences": {},
  "source": "pragma solidity ^0.8.17;\n\ncontract FlightDelay {\n\n    struct Insurance {\n        string airline;\n        string flight_number;\n        string departure_date;\n        bool delay_status;\n        string payment_status;\n    }\n    \n    Insurance[] public insurances;\n\n    string [] public airlines;\n    \n    mapping (string => bool) public isAirline;\n    mapping (uint => address) public insuranceToOwner;\n    mapping (address => uint) public ownerInsuranceCount;\n\n    function createInsurance(address _owner, string memory _airline, string memory _flight_number, string memory _departure_date) public {\n        _addUniqueAirline(_airline);\n\n        // create user insurance data\n        insurances.push(Insurance(_airline, _flight_number, _departure_date, false, \"un_paid\"));\n        uint _id = insurances.length - 1;\n        insuranceToOwner[_id] = _owner;\n        ownerInsuranceCount[_owner] ++;\n    }\n\n\n    // get insurance ids by user address\n    function getInsuranceIds(address _owner) public view returns (uint[] memory) {\n        uint[] memory re = new uint[](ownerInsuranceCount[_owner]);\n        uint counter = 0;\n        for(uint i = 0; i < insurances.length; i++) {\n            if(insuranceToOwner[i] == _owner) {\n                re[counter] = i;\n                counter ++;\n            }\n        }\n        return re;\n    }\n\n\n    // get insurance data by id\n    function getInsurance(uint _id) public view returns(string[] memory) {\n        string[] memory re = new string[](5);\n        re[0] = insurances[_id].airline;\n        re[1] = insurances[_id].flight_number;\n        re[2] = insurances[_id].departure_date;\n        (insurances[_id].delay_status == false) ? re[3] = \"F\" : re[3] = \"T\";\n        re[4] = insurances[_id].payment_status;\n        return re;\n    }\n\n\n    // add unique airline in array\n    function _addUniqueAirline(string memory _airline) internal {\n        if (isAirline[_airline] == false) {\n            // push the unique item to the array\n            airlines.push(_airline);\n            // don't forget to set the mapping value as well\n            isAirline[_airline] = true;\n        }\n    }\n\n\n    // return airlines array\n    function getAirlines() public view returns (string[] memory) {\n        return airlines;\n    }\n}",
  "sourcePath": "/Users/changhsin-i/Downloads//LifeChain/contracts/flightDelay.sol",
  "compiler": {
    "name": "solc",
    "version": "0.8.17+commit.8df45f5f.Emscripten.clang"
  },
  "schemaVersion": "3.4.10",
  "updatedAt": "2022-10-10T07:03:47.142Z",
  "networkType": "ethereum",
  "devdoc": {
    "kind": "dev",
    "methods": {},
    "version": 1
  },
  "userdoc": {
    "kind": "user",
    "methods": {},
    "version": 1
  }
}