{
  "contractName": "FlightDelay",
  "abi": [
    {
      "stateMutability": "payable",
      "type": "fallback",
      "payable": true
    },
    {
      "inputs": [],
      "name": "getBalance",
      "outputs": [
        {
          "internalType": "uint256",
          "name": "",
          "type": "uint256"
        }
      ],
      "stateMutability": "view",
      "type": "function",
      "constant": true
    },
    {
      "inputs": [
        {
          "internalType": "uint256",
          "name": "",
          "type": "uint256"
        }
      ],
      "name": "insuranceToOwner",
      "outputs": [
        {
          "internalType": "address",
          "name": "",
          "type": "address"
        }
      ],
      "stateMutability": "view",
      "type": "function",
      "constant": true
    },
    {
      "inputs": [
        {
          "internalType": "uint256",
          "name": "",
          "type": "uint256"
        }
      ],
      "name": "insurances",
      "outputs": [
        {
          "internalType": "string",
          "name": "airline",
          "type": "string"
        },
        {
          "internalType": "string",
          "name": "flight_number",
          "type": "string"
        },
        {
          "internalType": "string",
          "name": "departure_date",
          "type": "string"
        },
        {
          "internalType": "string",
          "name": "delay_status",
          "type": "string"
        },
        {
          "internalType": "string",
          "name": "payment_status",
          "type": "string"
        }
      ],
      "stateMutability": "view",
      "type": "function",
      "constant": true
    },
    {
      "inputs": [
        {
          "internalType": "address",
          "name": "",
          "type": "address"
        }
      ],
      "name": "isOwner",
      "outputs": [
        {
          "internalType": "bool",
          "name": "",
          "type": "bool"
        }
      ],
      "stateMutability": "view",
      "type": "function",
      "constant": true
    },
    {
      "inputs": [
        {
          "internalType": "address",
          "name": "",
          "type": "address"
        }
      ],
      "name": "ownerInsuranceCount",
      "outputs": [
        {
          "internalType": "uint256",
          "name": "",
          "type": "uint256"
        }
      ],
      "stateMutability": "view",
      "type": "function",
      "constant": true
    },
    {
      "inputs": [
        {
          "internalType": "uint256",
          "name": "",
          "type": "uint256"
        }
      ],
      "name": "owners",
      "outputs": [
        {
          "internalType": "address",
          "name": "",
          "type": "address"
        }
      ],
      "stateMutability": "view",
      "type": "function",
      "constant": true
    },
    {
      "inputs": [],
      "name": "toContract",
      "outputs": [],
      "stateMutability": "payable",
      "type": "function",
      "payable": true
    },
    {
      "inputs": [
        {
          "internalType": "address payable",
          "name": "_to",
          "type": "address"
        },
        {
          "internalType": "uint256",
          "name": "_amount",
          "type": "uint256"
        }
      ],
      "name": "withdrawMoneyTo",
      "outputs": [],
      "stateMutability": "nonpayable",
      "type": "function"
    },
    {
      "stateMutability": "payable",
      "type": "receive",
      "payable": true
    },
    {
      "inputs": [
        {
          "internalType": "address",
          "name": "_owner",
          "type": "address"
        },
        {
          "internalType": "string",
          "name": "_airline",
          "type": "string"
        },
        {
          "internalType": "string",
          "name": "_flight_number",
          "type": "string"
        },
        {
          "internalType": "string",
          "name": "_departure_date",
          "type": "string"
        }
      ],
      "name": "createInsurance",
      "outputs": [],
      "stateMutability": "payable",
      "type": "function",
      "payable": true
    },
    {
      "inputs": [
        {
          "internalType": "address",
          "name": "_owner",
          "type": "address"
        }
      ],
      "name": "getInsuranceIds",
      "outputs": [
        {
          "internalType": "uint256[]",
          "name": "",
          "type": "uint256[]"
        }
      ],
      "stateMutability": "view",
      "type": "function",
      "constant": true
    },
    {
      "inputs": [
        {
          "internalType": "uint256",
          "name": "_id",
          "type": "uint256"
        }
      ],
      "name": "getInsurance",
      "outputs": [
        {
          "internalType": "string[]",
          "name": "",
          "type": "string[]"
        }
      ],
      "stateMutability": "view",
      "type": "function",
      "constant": true
    },
    {
      "inputs": [],
      "name": "getOwners",
      "outputs": [
        {
          "internalType": "address[]",
          "name": "",
          "type": "address[]"
        }
      ],
      "stateMutability": "view",
      "type": "function",
      "constant": true
    },
    {
      "inputs": [
        {
          "internalType": "uint256",
          "name": "_id",
          "type": "uint256"
        },
        {
          "internalType": "string",
          "name": "_status",
          "type": "string"
        },
        {
          "internalType": "string",
          "name": "_payment",
          "type": "string"
        },
        {
          "internalType": "uint256",
          "name": "_amount",
          "type": "uint256"
        }
      ],
      "name": "updateInsurance",
      "outputs": [],
      "stateMutability": "nonpayable",
      "type": "function"
    }
  ],
  "bytecode": "0x608060405234801561001057600080fd5b50611f81806100206000396000f3fe6080604052600436106100c65760003560e01c806361b21f4d1161007f578063a0e67e2b11610059578063a0e67e2b1461027e578063c336b568146102a9578063c4b8edf0146102e6578063d73bbd201461030f576100cd565b806361b21f4d1461020e57806361b49c211461021857806385fae60214610241576100cd565b8063025e7c27146100cf57806312065fe01461010c5780632f54bf6e146101375780633654eed01461017457806359fb49f9146101b15780636103224d146101f2576100cd565b366100cd57005b005b3480156100db57600080fd5b506100f660048036038101906100f1919061129e565b61034c565b604051610103919061130c565b60405180910390f35b34801561011857600080fd5b5061012161038b565b60405161012e9190611336565b60405180910390f35b34801561014357600080fd5b5061015e6004803603810190610159919061137d565b610393565b60405161016b91906113c5565b60405180910390f35b34801561018057600080fd5b5061019b6004803603810190610196919061137d565b6103b3565b6040516101a89190611336565b60405180910390f35b3480156101bd57600080fd5b506101d860048036038101906101d3919061129e565b6103cb565b6040516101e9959493929190611470565b60405180910390f35b61020c6004803603810190610207919061161b565b6106b9565b005b6102166108b2565b005b34801561022457600080fd5b5061023f600480360381019061023a9190611714565b6108b4565b005b34801561024d57600080fd5b506102686004803603810190610263919061129e565b610968565b6040516102759190611860565b60405180910390f35b34801561028a57600080fd5b50610293610dc7565b6040516102a09190611940565b60405180910390f35b3480156102b557600080fd5b506102d060048036038101906102cb919061129e565b610e55565b6040516102dd919061130c565b60405180910390f35b3480156102f257600080fd5b5061030d60048036038101906103089190611962565b610e88565b005b34801561031b57600080fd5b506103366004803603810190610331919061137d565b610f37565b6040516103439190611abf565b60405180910390f35b6001818154811061035c57600080fd5b906000526020600020016000915054906101000a900473ffffffffffffffffffffffffffffffffffffffff1681565b600047905090565b60026020528060005260406000206000915054906101000a900460ff1681565b60046020528060005260406000206000915090505481565b600081815481106103db57600080fd5b90600052602060002090600502016000915090508060000180546103fe90611b10565b80601f016020809104026020016040519081016040528092919081815260200182805461042a90611b10565b80156104775780601f1061044c57610100808354040283529160200191610477565b820191906000526020600020905b81548152906001019060200180831161045a57829003601f168201915b50505050509080600101805461048c90611b10565b80601f01602080910402602001604051908101604052809291908181526020018280546104b890611b10565b80156105055780601f106104da57610100808354040283529160200191610505565b820191906000526020600020905b8154815290600101906020018083116104e857829003601f168201915b50505050509080600201805461051a90611b10565b80601f016020809104026020016040519081016040528092919081815260200182805461054690611b10565b80156105935780601f1061056857610100808354040283529160200191610593565b820191906000526020600020905b81548152906001019060200180831161057657829003601f168201915b5050505050908060030180546105a890611b10565b80601f01602080910402602001604051908101604052809291908181526020018280546105d490611b10565b80156106215780601f106105f657610100808354040283529160200191610621565b820191906000526020600020905b81548152906001019060200180831161060457829003601f168201915b50505050509080600401805461063690611b10565b80601f016020809104026020016040519081016040528092919081815260200182805461066290611b10565b80156106af5780601f10610684576101008083540402835291602001916106af565b820191906000526020600020905b81548152906001019060200180831161069257829003601f168201915b5050505050905085565b6106c284611089565b60006040518060a001604052808581526020018481526020018381526020016040518060400160405280600181526020017f2d0000000000000000000000000000000000000000000000000000000000000081525081526020016040518060400160405280600781526020017f556e205061696400000000000000000000000000000000000000000000000000815250815250908060018154018082558091505060019003906000526020600020906005020160009091909190915060008201518160000190816107939190611ced565b5060208201518160010190816107a99190611ced565b5060408201518160020190816107bf9190611ced565b5060608201518160030190816107d59190611ced565b5060808201518160040190816107eb9190611ced565b505050600060016000805490506108029190611dee565b9050846003600083815260200190815260200160002060006101000a81548173ffffffffffffffffffffffffffffffffffffffff021916908373ffffffffffffffffffffffffffffffffffffffff160217905550600460008673ffffffffffffffffffffffffffffffffffffffff1673ffffffffffffffffffffffffffffffffffffffff16815260200190815260200160002060008154809291906108a690611e22565b91905055505050505050565b565b6000808373ffffffffffffffffffffffffffffffffffffffff16836040516108db90611e9b565b60006040518083038185875af1925050503d8060008114610918576040519150601f19603f3d011682016040523d82523d6000602084013e61091d565b606091505b509150915081610962576040517f08c379a000000000000000000000000000000000000000000000000000000000815260040161095990611efc565b60405180910390fd5b50505050565b60606000600567ffffffffffffffff811115610987576109866114f0565b5b6040519080825280602002602001820160405280156109ba57816020015b60608152602001906001900390816109a55790505b509050600083815481106109d1576109d0611f1c565b5b906000526020600020906005020160000180546109ed90611b10565b80601f0160208091040260200160405190810160405280929190818152602001828054610a1990611b10565b8015610a665780601f10610a3b57610100808354040283529160200191610a66565b820191906000526020600020905b815481529060010190602001808311610a4957829003601f168201915b505050505081600081518110610a7f57610a7e611f1c565b5b602002602001018190525060008381548110610a9e57610a9d611f1c565b5b90600052602060002090600502016001018054610aba90611b10565b80601f0160208091040260200160405190810160405280929190818152602001828054610ae690611b10565b8015610b335780601f10610b0857610100808354040283529160200191610b33565b820191906000526020600020905b815481529060010190602001808311610b1657829003601f168201915b505050505081600181518110610b4c57610b4b611f1c565b5b602002602001018190525060008381548110610b6b57610b6a611f1c565b5b90600052602060002090600502016002018054610b8790611b10565b80601f0160208091040260200160405190810160405280929190818152602001828054610bb390611b10565b8015610c005780601f10610bd557610100808354040283529160200191610c00565b820191906000526020600020905b815481529060010190602001808311610be357829003601f168201915b505050505081600281518110610c1957610c18611f1c565b5b602002602001018190525060008381548110610c3857610c37611f1c565b5b90600052602060002090600502016003018054610c5490611b10565b80601f0160208091040260200160405190810160405280929190818152602001828054610c8090611b10565b8015610ccd5780601f10610ca257610100808354040283529160200191610ccd565b820191906000526020600020905b815481529060010190602001808311610cb057829003601f168201915b505050505081600381518110610ce657610ce5611f1c565b5b602002602001018190525060008381548110610d0557610d04611f1c565b5b90600052602060002090600502016004018054610d2190611b10565b80601f0160208091040260200160405190810160405280929190818152602001828054610d4d90611b10565b8015610d9a5780601f10610d6f57610100808354040283529160200191610d9a565b820191906000526020600020905b815481529060010190602001808311610d7d57829003601f168201915b505050505081600481518110610db357610db2611f1c565b5b602002602001018190525080915050919050565b60606001805480602002602001604051908101604052809291908181526020018280548015610e4b57602002820191906000526020600020905b8160009054906101000a900473ffffffffffffffffffffffffffffffffffffffff1673ffffffffffffffffffffffffffffffffffffffff1681526020019060010190808311610e01575b5050505050905090565b60036020528060005260406000206000915054906101000a900473ffffffffffffffffffffffffffffffffffffffff1681565b60006003600086815260200190815260200160002060009054906101000a900473ffffffffffffffffffffffffffffffffffffffff169050610eca81836111a0565b8360008681548110610edf57610ede611f1c565b5b90600052602060002090600502016003019081610efc9190611ced565b508260008681548110610f1257610f11611f1c565b5b90600052602060002090600502016004019081610f2f9190611ced565b505050505050565b60606000600460008473ffffffffffffffffffffffffffffffffffffffff1673ffffffffffffffffffffffffffffffffffffffff1681526020019081526020016000205467ffffffffffffffff811115610f9457610f936114f0565b5b604051908082528060200260200182016040528015610fc25781602001602082028036833780820191505090505b5090506000805b60008054905081101561107e578473ffffffffffffffffffffffffffffffffffffffff166003600083815260200190815260200160002060009054906101000a900473ffffffffffffffffffffffffffffffffffffffff1673ffffffffffffffffffffffffffffffffffffffff160361106b57808383815181106110505761104f611f1c565b5b602002602001018181525050818061106790611e22565b9250505b808061107690611e22565b915050610fc9565b508192505050919050565b60001515600260008373ffffffffffffffffffffffffffffffffffffffff1673ffffffffffffffffffffffffffffffffffffffff16815260200190815260200160002060009054906101000a900460ff1615150361119d576001819080600181540180825580915050600190039060005260206000200160009091909190916101000a81548173ffffffffffffffffffffffffffffffffffffffff021916908373ffffffffffffffffffffffffffffffffffffffff1602179055506001600260008373ffffffffffffffffffffffffffffffffffffffff1673ffffffffffffffffffffffffffffffffffffffff16815260200190815260200160002060006101000a81548160ff0219169083151502179055505b50565b6000808373ffffffffffffffffffffffffffffffffffffffff16836040516111c790611e9b565b60006040518083038185875af1925050503d8060008114611204576040519150601f19603f3d011682016040523d82523d6000602084013e611209565b606091505b50915091508161124e576040517f08c379a000000000000000000000000000000000000000000000000000000000815260040161124590611efc565b60405180910390fd5b50505050565b6000604051905090565b600080fd5b600080fd5b6000819050919050565b61127b81611268565b811461128657600080fd5b50565b60008135905061129881611272565b92915050565b6000602082840312156112b4576112b361125e565b5b60006112c284828501611289565b91505092915050565b600073ffffffffffffffffffffffffffffffffffffffff82169050919050565b60006112f6826112cb565b9050919050565b611306816112eb565b82525050565b600060208201905061132160008301846112fd565b92915050565b61133081611268565b82525050565b600060208201905061134b6000830184611327565b92915050565b61135a816112eb565b811461136557600080fd5b50565b60008135905061137781611351565b92915050565b6000602082840312156113935761139261125e565b5b60006113a184828501611368565b91505092915050565b60008115159050919050565b6113bf816113aa565b82525050565b60006020820190506113da60008301846113b6565b92915050565b600081519050919050565b600082825260208201905092915050565b60005b8381101561141a5780820151818401526020810190506113ff565b60008484015250505050565b6000601f19601f8301169050919050565b6000611442826113e0565b61144c81856113eb565b935061145c8185602086016113fc565b61146581611426565b840191505092915050565b600060a082019050818103600083015261148a8188611437565b9050818103602083015261149e8187611437565b905081810360408301526114b28186611437565b905081810360608301526114c68185611437565b905081810360808301526114da8184611437565b90509695505050505050565b600080fd5b600080fd5b7f4e487b7100000000000000000000000000000000000000000000000000000000600052604160045260246000fd5b61152882611426565b810181811067ffffffffffffffff82111715611547576115466114f0565b5b80604052505050565b600061155a611254565b9050611566828261151f565b919050565b600067ffffffffffffffff821115611586576115856114f0565b5b61158f82611426565b9050602081019050919050565b82818337600083830152505050565b60006115be6115b98461156b565b611550565b9050828152602081018484840111156115da576115d96114eb565b5b6115e584828561159c565b509392505050565b600082601f830112611602576116016114e6565b5b81356116128482602086016115ab565b91505092915050565b600080600080608085870312156116355761163461125e565b5b600061164387828801611368565b945050602085013567ffffffffffffffff81111561166457611663611263565b5b611670878288016115ed565b935050604085013567ffffffffffffffff81111561169157611690611263565b5b61169d878288016115ed565b925050606085013567ffffffffffffffff8111156116be576116bd611263565b5b6116ca878288016115ed565b91505092959194509250565b60006116e1826112cb565b9050919050565b6116f1816116d6565b81146116fc57600080fd5b50565b60008135905061170e816116e8565b92915050565b6000806040838503121561172b5761172a61125e565b5b6000611739858286016116ff565b925050602061174a85828601611289565b9150509250929050565b600081519050919050565b600082825260208201905092915050565b6000819050602082019050919050565b600082825260208201905092915050565b600061179c826113e0565b6117a68185611780565b93506117b68185602086016113fc565b6117bf81611426565b840191505092915050565b60006117d68383611791565b905092915050565b6000602082019050919050565b60006117f682611754565b611800818561175f565b93508360208202850161181285611770565b8060005b8581101561184e578484038952815161182f85826117ca565b945061183a836117de565b925060208a01995050600181019050611816565b50829750879550505050505092915050565b6000602082019050818103600083015261187a81846117eb565b905092915050565b600081519050919050565b600082825260208201905092915050565b6000819050602082019050919050565b6118b7816112eb565b82525050565b60006118c983836118ae565b60208301905092915050565b6000602082019050919050565b60006118ed82611882565b6118f7818561188d565b93506119028361189e565b8060005b8381101561193357815161191a88826118bd565b9750611925836118d5565b925050600181019050611906565b5085935050505092915050565b6000602082019050818103600083015261195a81846118e2565b905092915050565b6000806000806080858703121561197c5761197b61125e565b5b600061198a87828801611289565b945050602085013567ffffffffffffffff8111156119ab576119aa611263565b5b6119b7878288016115ed565b935050604085013567ffffffffffffffff8111156119d8576119d7611263565b5b6119e4878288016115ed565b92505060606119f587828801611289565b91505092959194509250565b600081519050919050565b600082825260208201905092915050565b6000819050602082019050919050565b611a3681611268565b82525050565b6000611a488383611a2d565b60208301905092915050565b6000602082019050919050565b6000611a6c82611a01565b611a768185611a0c565b9350611a8183611a1d565b8060005b83811015611ab2578151611a998882611a3c565b9750611aa483611a54565b925050600181019050611a85565b5085935050505092915050565b60006020820190508181036000830152611ad98184611a61565b905092915050565b7f4e487b7100000000000000000000000000000000000000000000000000000000600052602260045260246000fd5b60006002820490506001821680611b2857607f821691505b602082108103611b3b57611b3a611ae1565b5b50919050565b60008190508160005260206000209050919050565b60006020601f8301049050919050565b600082821b905092915050565b600060088302611ba37fffffffffffffffffffffffffffffffffffffffffffffffffffffffffffffffff82611b66565b611bad8683611b66565b95508019841693508086168417925050509392505050565b6000819050919050565b6000611bea611be5611be084611268565b611bc5565b611268565b9050919050565b6000819050919050565b611c0483611bcf565b611c18611c1082611bf1565b848454611b73565b825550505050565b600090565b611c2d611c20565b611c38818484611bfb565b505050565b5b81811015611c5c57611c51600082611c25565b600181019050611c3e565b5050565b601f821115611ca157611c7281611b41565b611c7b84611b56565b81016020851015611c8a578190505b611c9e611c9685611b56565b830182611c3d565b50505b505050565b600082821c905092915050565b6000611cc460001984600802611ca6565b1980831691505092915050565b6000611cdd8383611cb3565b9150826002028217905092915050565b611cf6826113e0565b67ffffffffffffffff811115611d0f57611d0e6114f0565b5b611d198254611b10565b611d24828285611c60565b600060209050601f831160018114611d575760008415611d45578287015190505b611d4f8582611cd1565b865550611db7565b601f198416611d6586611b41565b60005b82811015611d8d57848901518255600182019150602085019450602081019050611d68565b86831015611daa5784890151611da6601f891682611cb3565b8355505b6001600288020188555050505b505050505050565b7f4e487b7100000000000000000000000000000000000000000000000000000000600052601160045260246000fd5b6000611df982611268565b9150611e0483611268565b9250828203905081811115611e1c57611e1b611dbf565b5b92915050565b6000611e2d82611268565b91507fffffffffffffffffffffffffffffffffffffffffffffffffffffffffffffffff8203611e5f57611e5e611dbf565b5b600182019050919050565b600081905092915050565b50565b6000611e85600083611e6a565b9150611e9082611e75565b600082019050919050565b6000611ea682611e78565b9150819050919050565b7f4661696c656420746f2073656e64204574686572000000000000000000000000600082015250565b6000611ee66014836113eb565b9150611ef182611eb0565b602082019050919050565b60006020820190508181036000830152611f1581611ed9565b9050919050565b7f4e487b7100000000000000000000000000000000000000000000000000000000600052603260045260246000fdfea2646970667358221220bdc0ae4bcecc7ffaa8f984216df9440ee184e2de0000d4f72fef91f0e090f1b764736f6c63430008110033",
  "immutableReferences": {},
  "source": "pragma solidity ^0.8.17;\nimport \"./receive.sol\";\nimport \"./send.sol\";\n\ncontract FlightDelay is Receive, Send{\n\n    struct Insurance {\n        string airline;\n        string flight_number;\n        string departure_date;\n        string delay_status;\n        string payment_status;\n    }\n    \n    Insurance[] public insurances;\n\n    address [] public owners;\n    \n    mapping (address => bool) public isOwner;\n    mapping (uint => address) public insuranceToOwner;\n    mapping (address => uint) public ownerInsuranceCount;\n\n    function createInsurance(address _owner, string memory _airline, string memory _flight_number, string memory _departure_date) public payable {\n        _addUniqueOwner(_owner);\n        // create user insurance data\n        insurances.push(Insurance(_airline, _flight_number, _departure_date, \"-\", \"Un Paid\"));\n        uint _id = insurances.length - 1;\n        insuranceToOwner[_id] = _owner;\n        ownerInsuranceCount[_owner] ++;\n    }\n\n    // add unique owner in array\n    function _addUniqueOwner(address _owner) internal {\n        if(isOwner[_owner] == false) {\n            // push the unique item to the array\n            owners.push(_owner);\n            // don't forget to set the mapping value as well\n            isOwner[_owner] = true;\n        }\n    }\n\n    // get insurance ids by user address\n    function getInsuranceIds(address _owner) public view returns (uint[] memory) {\n        uint[] memory re = new uint[](ownerInsuranceCount[_owner]);\n        uint counter = 0;\n        for(uint i = 0; i < insurances.length; i++) {\n            if(insuranceToOwner[i] == _owner) {\n                re[counter] = i;\n                counter ++;\n            }\n        }\n        return re;\n    }\n\n    // get insurance data by id\n    function getInsurance(uint _id) public view returns(string[] memory) {\n        string[] memory re = new string[](5);\n        re[0] = insurances[_id].airline;\n        re[1] = insurances[_id].flight_number;\n        re[2] = insurances[_id].departure_date;\n        re[3] = insurances[_id].delay_status;\n        re[4] = insurances[_id].payment_status;\n        return re;\n    }\n\n    // return owner array\n    function getOwners() public view returns (address[] memory) {\n        return owners;\n    }\n\n    // update insurance data if the flight is dalay or on time\n    function updateInsurance(uint _id, string memory _status, string memory _payment, uint _amount) public {\n        address payable _to = payable(insuranceToOwner[_id]);\n        _withdrawMoneyTo(_to, _amount);\n        insurances[_id].delay_status = _status;\n        insurances[_id].payment_status = _payment;\n    }\n\n    function _withdrawMoneyTo(address payable _to, uint _amount) internal {\n        // _to.transfer(getBalance());\n        (bool sent, bytes memory data) = _to.call{value: _amount}(\"\");\n        require(sent, \"Failed to send Ether\");\n    }\n}",
  "sourcePath": "/Users/changhsin-i/Downloads//LifeChain/contracts/flightDelay.sol",
  "compiler": {
    "name": "solc",
    "version": "0.8.17+commit.8df45f5f.Emscripten.clang"
  },
  "schemaVersion": "3.4.10",
  "updatedAt": "2022-10-16T14:01:51.658Z",
  "networkType": "ethereum",
  "devdoc": {
    "kind": "dev",
    "methods": {},
    "version": 1
  },
  "userdoc": {
    "kind": "user",
    "methods": {},
    "version": 1
  }
}