{
  "contractName": "FlightDelay",
  "abi": [
    {
      "inputs": [
        {
          "internalType": "uint256",
          "name": "",
          "type": "uint256"
        }
      ],
      "name": "airlines",
      "outputs": [
        {
          "internalType": "string",
          "name": "",
          "type": "string"
        }
      ],
      "stateMutability": "view",
      "type": "function",
      "constant": true
    },
    {
      "inputs": [
        {
          "internalType": "uint256",
          "name": "",
          "type": "uint256"
        }
      ],
      "name": "insuranceToOwner",
      "outputs": [
        {
          "internalType": "address",
          "name": "",
          "type": "address"
        }
      ],
      "stateMutability": "view",
      "type": "function",
      "constant": true
    },
    {
      "inputs": [
        {
          "internalType": "uint256",
          "name": "",
          "type": "uint256"
        }
      ],
      "name": "insurances",
      "outputs": [
        {
          "internalType": "string",
          "name": "airline",
          "type": "string"
        },
        {
          "internalType": "string",
          "name": "flight_number",
          "type": "string"
        },
        {
          "internalType": "string",
          "name": "departure_date",
          "type": "string"
        },
        {
          "internalType": "bool",
          "name": "delay_status",
          "type": "bool"
        },
        {
          "internalType": "string",
          "name": "payment_status",
          "type": "string"
        }
      ],
      "stateMutability": "view",
      "type": "function",
      "constant": true
    },
    {
      "inputs": [
        {
          "internalType": "string",
          "name": "",
          "type": "string"
        }
      ],
      "name": "isAirline",
      "outputs": [
        {
          "internalType": "bool",
          "name": "",
          "type": "bool"
        }
      ],
      "stateMutability": "view",
      "type": "function",
      "constant": true
    },
    {
      "inputs": [
        {
          "internalType": "address",
          "name": "",
          "type": "address"
        }
      ],
      "name": "isOwner",
      "outputs": [
        {
          "internalType": "bool",
          "name": "",
          "type": "bool"
        }
      ],
      "stateMutability": "view",
      "type": "function",
      "constant": true
    },
    {
      "inputs": [
        {
          "internalType": "address",
          "name": "",
          "type": "address"
        }
      ],
      "name": "ownerInsuranceCount",
      "outputs": [
        {
          "internalType": "uint256",
          "name": "",
          "type": "uint256"
        }
      ],
      "stateMutability": "view",
      "type": "function",
      "constant": true
    },
    {
      "inputs": [
        {
          "internalType": "uint256",
          "name": "",
          "type": "uint256"
        }
      ],
      "name": "owners",
      "outputs": [
        {
          "internalType": "address",
          "name": "",
          "type": "address"
        }
      ],
      "stateMutability": "view",
      "type": "function",
      "constant": true
    },
    {
      "inputs": [
        {
          "internalType": "address",
          "name": "_owner",
          "type": "address"
        },
        {
          "internalType": "string",
          "name": "_airline",
          "type": "string"
        },
        {
          "internalType": "string",
          "name": "_flight_number",
          "type": "string"
        },
        {
          "internalType": "string",
          "name": "_departure_date",
          "type": "string"
        }
      ],
      "name": "createInsurance",
      "outputs": [],
      "stateMutability": "nonpayable",
      "type": "function"
    },
    {
      "inputs": [
        {
          "internalType": "address",
          "name": "_owner",
          "type": "address"
        }
      ],
      "name": "getInsuranceIds",
      "outputs": [
        {
          "internalType": "uint256[]",
          "name": "",
          "type": "uint256[]"
        }
      ],
      "stateMutability": "view",
      "type": "function",
      "constant": true
    },
    {
      "inputs": [
        {
          "internalType": "uint256",
          "name": "_id",
          "type": "uint256"
        }
      ],
      "name": "getInsurance",
      "outputs": [
        {
          "internalType": "string[]",
          "name": "",
          "type": "string[]"
        }
      ],
      "stateMutability": "view",
      "type": "function",
      "constant": true
    },
    {
      "inputs": [],
      "name": "getAirlines",
      "outputs": [
        {
          "internalType": "string[]",
          "name": "",
          "type": "string[]"
        }
      ],
      "stateMutability": "view",
      "type": "function",
      "constant": true
    },
    {
      "inputs": [],
      "name": "getOwners",
      "outputs": [
        {
          "internalType": "address[]",
          "name": "",
          "type": "address[]"
        }
      ],
      "stateMutability": "view",
      "type": "function",
      "constant": true
    }
  ],
  "bytecode": "0x608060405234801561001057600080fd5b50611da9806100206000396000f3fe608060405234801561001057600080fd5b50600436106100b45760003560e01c806359fb49f91161007157806359fb49f9146101c75780636103224d146101fb57806385fae60214610217578063a0e67e2b14610247578063c336b56814610265578063d73bbd2014610295576100b4565b8063025e7c27146100b95780630d5dc054146100e95780631e8e1a25146101075780632f54bf6e146101375780633654eed0146101675780633a9a77ca14610197575b600080fd5b6100d360048036038101906100ce91906111de565b6102c5565b6040516100e0919061124c565b60405180910390f35b6100f1610304565b6040516100fe91906113b9565b60405180910390f35b610121600480360381019061011c9190611510565b6103dd565b60405161012e9190611574565b60405180910390f35b610151600480360381019061014c91906115bb565b610413565b60405161015e9190611574565b60405180910390f35b610181600480360381019061017c91906115bb565b610433565b60405161018e91906115f7565b60405180910390f35b6101b160048036038101906101ac91906111de565b61044b565b6040516101be919061165c565b60405180910390f35b6101e160048036038101906101dc91906111de565b6104f7565b6040516101f295949392919061167e565b60405180910390f35b610215600480360381019061021091906116ed565b61076a565b005b610231600480360381019061022c91906111de565b610944565b60405161023e91906113b9565b60405180910390f35b61024f610dc3565b60405161025c9190611866565b60405180910390f35b61027f600480360381019061027a91906111de565b610e51565b60405161028c919061124c565b60405180910390f35b6102af60048036038101906102aa91906115bb565b610e84565b6040516102bc9190611946565b60405180910390f35b600281815481106102d557600080fd5b906000526020600020016000915054906101000a900473ffffffffffffffffffffffffffffffffffffffff1681565b60606001805480602002602001604051908101604052809291908181526020016000905b828210156103d457838290600052602060002001805461034790611997565b80601f016020809104026020016040519081016040528092919081815260200182805461037390611997565b80156103c05780601f10610395576101008083540402835291602001916103c0565b820191906000526020600020905b8154815290600101906020018083116103a357829003601f168201915b505050505081526020019060010190610328565b50505050905090565b6003818051602081018201805184825260208301602085012081835280955050505050506000915054906101000a900460ff1681565b60046020528060005260406000206000915054906101000a900460ff1681565b60066020528060005260406000206000915090505481565b6001818154811061045b57600080fd5b90600052602060002001600091509050805461047690611997565b80601f01602080910402602001604051908101604052809291908181526020018280546104a290611997565b80156104ef5780601f106104c4576101008083540402835291602001916104ef565b820191906000526020600020905b8154815290600101906020018083116104d257829003601f168201915b505050505081565b6000818154811061050757600080fd5b906000526020600020906005020160009150905080600001805461052a90611997565b80601f016020809104026020016040519081016040528092919081815260200182805461055690611997565b80156105a35780601f10610578576101008083540402835291602001916105a3565b820191906000526020600020905b81548152906001019060200180831161058657829003601f168201915b5050505050908060010180546105b890611997565b80601f01602080910402602001604051908101604052809291908181526020018280546105e490611997565b80156106315780601f1061060657610100808354040283529160200191610631565b820191906000526020600020905b81548152906001019060200180831161061457829003601f168201915b50505050509080600201805461064690611997565b80601f016020809104026020016040519081016040528092919081815260200182805461067290611997565b80156106bf5780601f10610694576101008083540402835291602001916106bf565b820191906000526020600020905b8154815290600101906020018083116106a257829003601f168201915b5050505050908060030160009054906101000a900460ff16908060040180546106e790611997565b80601f016020809104026020016040519081016040528092919081815260200182805461071390611997565b80156107605780601f1061073557610100808354040283529160200191610760565b820191906000526020600020905b81548152906001019060200180831161074357829003601f168201915b5050505050905085565b61077383610fd6565b61077c8461107d565b60006040518060a001604052808581526020018481526020018381526020016000151581526020016040518060400160405280600781526020017f756e5f70616964000000000000000000000000000000000000000000000000008152508152509080600181540180825580915050600190039060005260206000209060050201600090919091909150600082015181600001908161081b9190611b74565b5060208201518160010190816108319190611b74565b5060408201518160020190816108479190611b74565b5060608201518160030160006101000a81548160ff021916908315150217905550608082015181600401908161087d9190611b74565b505050600060016000805490506108949190611c75565b9050846005600083815260200190815260200160002060006101000a81548173ffffffffffffffffffffffffffffffffffffffff021916908373ffffffffffffffffffffffffffffffffffffffff160217905550600660008673ffffffffffffffffffffffffffffffffffffffff1673ffffffffffffffffffffffffffffffffffffffff168152602001908152602001600020600081548092919061093890611ca9565b91905055505050505050565b60606000600567ffffffffffffffff811115610963576109626113e5565b5b60405190808252806020026020018201604052801561099657816020015b60608152602001906001900390816109815790505b509050600083815481106109ad576109ac611cf1565b5b906000526020600020906005020160000180546109c990611997565b80601f01602080910402602001604051908101604052809291908181526020018280546109f590611997565b8015610a425780601f10610a1757610100808354040283529160200191610a42565b820191906000526020600020905b815481529060010190602001808311610a2557829003601f168201915b505050505081600081518110610a5b57610a5a611cf1565b5b602002602001018190525060008381548110610a7a57610a79611cf1565b5b90600052602060002090600502016001018054610a9690611997565b80601f0160208091040260200160405190810160405280929190818152602001828054610ac290611997565b8015610b0f5780601f10610ae457610100808354040283529160200191610b0f565b820191906000526020600020905b815481529060010190602001808311610af257829003601f168201915b505050505081600181518110610b2857610b27611cf1565b5b602002602001018190525060008381548110610b4757610b46611cf1565b5b90600052602060002090600502016002018054610b6390611997565b80601f0160208091040260200160405190810160405280929190818152602001828054610b8f90611997565b8015610bdc5780601f10610bb157610100808354040283529160200191610bdc565b820191906000526020600020905b815481529060010190602001808311610bbf57829003601f168201915b505050505081600281518110610bf557610bf4611cf1565b5b60200260200101819052506000151560008481548110610c1857610c17611cf1565b5b906000526020600020906005020160030160009054906101000a900460ff16151514610c97576040518060400160405280600181526020017f540000000000000000000000000000000000000000000000000000000000000081525081600381518110610c8857610c87611cf1565b5b60200260200101819052610cec565b6040518060400160405280600181526020017f460000000000000000000000000000000000000000000000000000000000000081525081600381518110610ce157610ce0611cf1565b5b602002602001018190525b5060008381548110610d0157610d00611cf1565b5b90600052602060002090600502016004018054610d1d90611997565b80601f0160208091040260200160405190810160405280929190818152602001828054610d4990611997565b8015610d965780601f10610d6b57610100808354040283529160200191610d96565b820191906000526020600020905b815481529060010190602001808311610d7957829003601f168201915b505050505081600481518110610daf57610dae611cf1565b5b602002602001018190525080915050919050565b60606002805480602002602001604051908101604052809291908181526020018280548015610e4757602002820191906000526020600020905b8160009054906101000a900473ffffffffffffffffffffffffffffffffffffffff1673ffffffffffffffffffffffffffffffffffffffff1681526020019060010190808311610dfd575b5050505050905090565b60056020528060005260406000206000915054906101000a900473ffffffffffffffffffffffffffffffffffffffff1681565b60606000600660008473ffffffffffffffffffffffffffffffffffffffff1673ffffffffffffffffffffffffffffffffffffffff1681526020019081526020016000205467ffffffffffffffff811115610ee157610ee06113e5565b5b604051908082528060200260200182016040528015610f0f5781602001602082028036833780820191505090505b5090506000805b600080549050811015610fcb578473ffffffffffffffffffffffffffffffffffffffff166005600083815260200190815260200160002060009054906101000a900473ffffffffffffffffffffffffffffffffffffffff1673ffffffffffffffffffffffffffffffffffffffff1603610fb85780838381518110610f9d57610f9c611cf1565b5b6020026020010181815250508180610fb490611ca9565b9250505b8080610fc390611ca9565b915050610f16565b508192505050919050565b60001515600382604051610fea9190611d5c565b908152602001604051809103902060009054906101000a900460ff1615150361107a576001819080600181540180825580915050600190039060005260206000200160009091909190915090816110419190611b74565b5060016003826040516110549190611d5c565b908152602001604051809103902060006101000a81548160ff0219169083151502179055505b50565b60001515600460008373ffffffffffffffffffffffffffffffffffffffff1673ffffffffffffffffffffffffffffffffffffffff16815260200190815260200160002060009054906101000a900460ff16151503611191576002819080600181540180825580915050600190039060005260206000200160009091909190916101000a81548173ffffffffffffffffffffffffffffffffffffffff021916908373ffffffffffffffffffffffffffffffffffffffff1602179055506001600460008373ffffffffffffffffffffffffffffffffffffffff1673ffffffffffffffffffffffffffffffffffffffff16815260200190815260200160002060006101000a81548160ff0219169083151502179055505b50565b6000604051905090565b600080fd5b600080fd5b6000819050919050565b6111bb816111a8565b81146111c657600080fd5b50565b6000813590506111d8816111b2565b92915050565b6000602082840312156111f4576111f361119e565b5b6000611202848285016111c9565b91505092915050565b600073ffffffffffffffffffffffffffffffffffffffff82169050919050565b60006112368261120b565b9050919050565b6112468161122b565b82525050565b6000602082019050611261600083018461123d565b92915050565b600081519050919050565b600082825260208201905092915050565b6000819050602082019050919050565b600081519050919050565b600082825260208201905092915050565b60005b838110156112cd5780820151818401526020810190506112b2565b60008484015250505050565b6000601f19601f8301169050919050565b60006112f582611293565b6112ff818561129e565b935061130f8185602086016112af565b611318816112d9565b840191505092915050565b600061132f83836112ea565b905092915050565b6000602082019050919050565b600061134f82611267565b6113598185611272565b93508360208202850161136b85611283565b8060005b858110156113a757848403895281516113888582611323565b945061139383611337565b925060208a0199505060018101905061136f565b50829750879550505050505092915050565b600060208201905081810360008301526113d38184611344565b905092915050565b600080fd5b600080fd5b7f4e487b7100000000000000000000000000000000000000000000000000000000600052604160045260246000fd5b61141d826112d9565b810181811067ffffffffffffffff8211171561143c5761143b6113e5565b5b80604052505050565b600061144f611194565b905061145b8282611414565b919050565b600067ffffffffffffffff82111561147b5761147a6113e5565b5b611484826112d9565b9050602081019050919050565b82818337600083830152505050565b60006114b36114ae84611460565b611445565b9050828152602081018484840111156114cf576114ce6113e0565b5b6114da848285611491565b509392505050565b600082601f8301126114f7576114f66113db565b5b81356115078482602086016114a0565b91505092915050565b6000602082840312156115265761152561119e565b5b600082013567ffffffffffffffff811115611544576115436111a3565b5b611550848285016114e2565b91505092915050565b60008115159050919050565b61156e81611559565b82525050565b60006020820190506115896000830184611565565b92915050565b6115988161122b565b81146115a357600080fd5b50565b6000813590506115b58161158f565b92915050565b6000602082840312156115d1576115d061119e565b5b60006115df848285016115a6565b91505092915050565b6115f1816111a8565b82525050565b600060208201905061160c60008301846115e8565b92915050565b600082825260208201905092915050565b600061162e82611293565b6116388185611612565b93506116488185602086016112af565b611651816112d9565b840191505092915050565b600060208201905081810360008301526116768184611623565b905092915050565b600060a08201905081810360008301526116988188611623565b905081810360208301526116ac8187611623565b905081810360408301526116c08186611623565b90506116cf6060830185611565565b81810360808301526116e18184611623565b90509695505050505050565b600080600080608085870312156117075761170661119e565b5b6000611715878288016115a6565b945050602085013567ffffffffffffffff811115611736576117356111a3565b5b611742878288016114e2565b935050604085013567ffffffffffffffff811115611763576117626111a3565b5b61176f878288016114e2565b925050606085013567ffffffffffffffff8111156117905761178f6111a3565b5b61179c878288016114e2565b91505092959194509250565b600081519050919050565b600082825260208201905092915050565b6000819050602082019050919050565b6117dd8161122b565b82525050565b60006117ef83836117d4565b60208301905092915050565b6000602082019050919050565b6000611813826117a8565b61181d81856117b3565b9350611828836117c4565b8060005b8381101561185957815161184088826117e3565b975061184b836117fb565b92505060018101905061182c565b5085935050505092915050565b600060208201905081810360008301526118808184611808565b905092915050565b600081519050919050565b600082825260208201905092915050565b6000819050602082019050919050565b6118bd816111a8565b82525050565b60006118cf83836118b4565b60208301905092915050565b6000602082019050919050565b60006118f382611888565b6118fd8185611893565b9350611908836118a4565b8060005b8381101561193957815161192088826118c3565b975061192b836118db565b92505060018101905061190c565b5085935050505092915050565b6000602082019050818103600083015261196081846118e8565b905092915050565b7f4e487b7100000000000000000000000000000000000000000000000000000000600052602260045260246000fd5b600060028204905060018216806119af57607f821691505b6020821081036119c2576119c1611968565b5b50919050565b60008190508160005260206000209050919050565b60006020601f8301049050919050565b600082821b905092915050565b600060088302611a2a7fffffffffffffffffffffffffffffffffffffffffffffffffffffffffffffffff826119ed565b611a3486836119ed565b95508019841693508086168417925050509392505050565b6000819050919050565b6000611a71611a6c611a67846111a8565b611a4c565b6111a8565b9050919050565b6000819050919050565b611a8b83611a56565b611a9f611a9782611a78565b8484546119fa565b825550505050565b600090565b611ab4611aa7565b611abf818484611a82565b505050565b5b81811015611ae357611ad8600082611aac565b600181019050611ac5565b5050565b601f821115611b2857611af9816119c8565b611b02846119dd565b81016020851015611b11578190505b611b25611b1d856119dd565b830182611ac4565b50505b505050565b600082821c905092915050565b6000611b4b60001984600802611b2d565b1980831691505092915050565b6000611b648383611b3a565b9150826002028217905092915050565b611b7d82611293565b67ffffffffffffffff811115611b9657611b956113e5565b5b611ba08254611997565b611bab828285611ae7565b600060209050601f831160018114611bde5760008415611bcc578287015190505b611bd68582611b58565b865550611c3e565b601f198416611bec866119c8565b60005b82811015611c1457848901518255600182019150602085019450602081019050611bef565b86831015611c315784890151611c2d601f891682611b3a565b8355505b6001600288020188555050505b505050505050565b7f4e487b7100000000000000000000000000000000000000000000000000000000600052601160045260246000fd5b6000611c80826111a8565b9150611c8b836111a8565b9250828203905081811115611ca357611ca2611c46565b5b92915050565b6000611cb4826111a8565b91507fffffffffffffffffffffffffffffffffffffffffffffffffffffffffffffffff8203611ce657611ce5611c46565b5b600182019050919050565b7f4e487b7100000000000000000000000000000000000000000000000000000000600052603260045260246000fd5b600081905092915050565b6000611d3682611293565b611d408185611d20565b9350611d508185602086016112af565b80840191505092915050565b6000611d688284611d2b565b91508190509291505056fea26469706673582212203427299f323a85575b50b41450466464e200497430eaefcfddb3cc3f011e63c064736f6c63430008110033",
  "immutableReferences": {},
  "source": "pragma solidity ^0.8.17;\n\ncontract FlightDelay {\n\n    struct Insurance {\n        string airline;\n        string flight_number;\n        string departure_date;\n        bool delay_status;\n        string payment_status;\n    }\n    \n    Insurance[] public insurances;\n\n    string [] public airlines;\n    address [] public owners;\n    \n    mapping (string => bool) public isAirline;\n    mapping (address => bool) public isOwner;\n    mapping (uint => address) public insuranceToOwner;\n    mapping (address => uint) public ownerInsuranceCount;\n\n    function createInsurance(address _owner, string memory _airline, string memory _flight_number, string memory _departure_date) public {\n        _addUniqueAirline(_airline);\n        _addUniqueOwner(_owner);\n\n        // create user insurance data\n        insurances.push(Insurance(_airline, _flight_number, _departure_date, false, \"un_paid\"));\n        uint _id = insurances.length - 1;\n        insuranceToOwner[_id] = _owner;\n        ownerInsuranceCount[_owner] ++;\n    }\n\n\n    // get insurance ids by user address\n    function getInsuranceIds(address _owner) public view returns (uint[] memory) {\n        uint[] memory re = new uint[](ownerInsuranceCount[_owner]);\n        uint counter = 0;\n        for(uint i = 0; i < insurances.length; i++) {\n            if(insuranceToOwner[i] == _owner) {\n                re[counter] = i;\n                counter ++;\n            }\n        }\n        return re;\n    }\n\n\n    // get insurance data by id\n    function getInsurance(uint _id) public view returns(string[] memory) {\n        string[] memory re = new string[](5);\n        re[0] = insurances[_id].airline;\n        re[1] = insurances[_id].flight_number;\n        re[2] = insurances[_id].departure_date;\n        (insurances[_id].delay_status == false) ? re[3] = \"F\" : re[3] = \"T\";\n        re[4] = insurances[_id].payment_status;\n        return re;\n    }\n\n\n    // add unique airline in array\n    function _addUniqueAirline(string memory _airline) internal {\n        if (isAirline[_airline] == false) {\n            // push the unique item to the array\n            airlines.push(_airline);\n            // don't forget to set the mapping value as well\n            isAirline[_airline] = true;\n        }\n    }\n    function _addUniqueOwner(address _owner) internal {\n        if(isOwner[_owner] == false) {\n            owners.push(_owner);\n            isOwner[_owner] = true;\n        }\n    }\n\n\n    // return airlines array\n    function getAirlines() public view returns (string[] memory) {\n        return airlines;\n    }\n\n\n    //\n    function getOwners() public view returns (address[] memory) {\n        return owners;\n    }\n}",
  "sourcePath": "/Users/changhsin-i/Downloads//LifeChain/contracts/flightDelay.sol",
  "compiler": {
    "name": "solc",
    "version": "0.8.17+commit.8df45f5f.Emscripten.clang"
  },
  "schemaVersion": "3.4.10",
  "updatedAt": "2022-10-11T08:23:01.809Z",
  "networkType": "ethereum",
  "devdoc": {
    "kind": "dev",
    "methods": {},
    "version": 1
  },
  "userdoc": {
    "kind": "user",
    "methods": {},
    "version": 1
  }
}