{
  "contractName": "FlightDelay",
  "abi": [
    {
      "inputs": [
        {
          "internalType": "uint256",
          "name": "",
          "type": "uint256"
        }
      ],
      "name": "airlines",
      "outputs": [
        {
          "internalType": "string",
          "name": "",
          "type": "string"
        }
      ],
      "stateMutability": "view",
      "type": "function",
      "constant": true
    },
    {
      "inputs": [
        {
          "internalType": "address",
          "name": "",
          "type": "address"
        }
      ],
      "name": "insurances",
      "outputs": [
        {
          "internalType": "string",
          "name": "airline",
          "type": "string"
        },
        {
          "internalType": "string",
          "name": "flight_number",
          "type": "string"
        },
        {
          "internalType": "string",
          "name": "departure_date",
          "type": "string"
        },
        {
          "internalType": "bool",
          "name": "delay_status",
          "type": "bool"
        },
        {
          "internalType": "string",
          "name": "payment_status",
          "type": "string"
        }
      ],
      "stateMutability": "view",
      "type": "function",
      "constant": true
    },
    {
      "inputs": [
        {
          "internalType": "string",
          "name": "",
          "type": "string"
        }
      ],
      "name": "isAirline",
      "outputs": [
        {
          "internalType": "bool",
          "name": "",
          "type": "bool"
        }
      ],
      "stateMutability": "view",
      "type": "function",
      "constant": true
    },
    {
      "inputs": [
        {
          "internalType": "address",
          "name": "_owner",
          "type": "address"
        },
        {
          "internalType": "string",
          "name": "_airline",
          "type": "string"
        },
        {
          "internalType": "string",
          "name": "_flight_number",
          "type": "string"
        },
        {
          "internalType": "string",
          "name": "_departure_date",
          "type": "string"
        }
      ],
      "name": "createInsurance",
      "outputs": [],
      "stateMutability": "nonpayable",
      "type": "function"
    },
    {
      "inputs": [
        {
          "internalType": "address",
          "name": "_owner",
          "type": "address"
        }
      ],
      "name": "getInsurance",
      "outputs": [
        {
          "internalType": "string",
          "name": "",
          "type": "string"
        },
        {
          "internalType": "string",
          "name": "",
          "type": "string"
        },
        {
          "internalType": "string",
          "name": "",
          "type": "string"
        },
        {
          "internalType": "bool",
          "name": "",
          "type": "bool"
        },
        {
          "internalType": "string",
          "name": "",
          "type": "string"
        }
      ],
      "stateMutability": "view",
      "type": "function",
      "constant": true
    },
    {
      "inputs": [],
      "name": "getAirlines",
      "outputs": [
        {
          "internalType": "string[]",
          "name": "",
          "type": "string[]"
        }
      ],
      "stateMutability": "view",
      "type": "function",
      "constant": true
    }
  ],
  "bytecode": "0x6080604052600060015534801561001557600080fd5b506114d8806100256000396000f3fe608060405234801561001057600080fd5b50600436106100625760003560e01c80630d5dc054146100675780631677c500146100855780631e8e1a25146100b957806327bae60a146100e95780633a9a77ca1461011d5780636103224d1461014d575b600080fd5b61006f610169565b60405161007c9190610d03565b60405180910390f35b61009f600480360381019061009a9190610d97565b610242565b6040516100b0959493929190610e29565b60405180910390f35b6100d360048036038101906100ce9190610fcd565b6105e6565b6040516100e09190611016565b60405180910390f35b61010360048036038101906100fe9190610d97565b61061c565b604051610114959493929190610e29565b60405180910390f35b61013760048036038101906101329190611067565b61087f565b6040516101449190611094565b60405180910390f35b610167600480360381019061016291906110b6565b61092b565b005b60606000805480602002602001604051908101604052809291908181526020016000905b828210156102395783829060005260206000200180546101ac906111a0565b80601f01602080910402602001604051908101604052809291908181526020018280546101d8906111a0565b80156102255780601f106101fa57610100808354040283529160200191610225565b820191906000526020600020905b81548152906001019060200180831161020857829003601f168201915b50505050508152602001906001019061018d565b50505050905090565b606080606060006060600360008773ffffffffffffffffffffffffffffffffffffffff1673ffffffffffffffffffffffffffffffffffffffff168152602001908152602001600020600001600360008873ffffffffffffffffffffffffffffffffffffffff1673ffffffffffffffffffffffffffffffffffffffff168152602001908152602001600020600101600360008973ffffffffffffffffffffffffffffffffffffffff1673ffffffffffffffffffffffffffffffffffffffff168152602001908152602001600020600201600360008a73ffffffffffffffffffffffffffffffffffffffff1673ffffffffffffffffffffffffffffffffffffffff16815260200190815260200160002060030160009054906101000a900460ff16600360008b73ffffffffffffffffffffffffffffffffffffffff1673ffffffffffffffffffffffffffffffffffffffff1681526020019081526020016000206004018480546103af906111a0565b80601f01602080910402602001604051908101604052809291908181526020018280546103db906111a0565b80156104285780601f106103fd57610100808354040283529160200191610428565b820191906000526020600020905b81548152906001019060200180831161040b57829003601f168201915b5050505050945083805461043b906111a0565b80601f0160208091040260200160405190810160405280929190818152602001828054610467906111a0565b80156104b45780601f10610489576101008083540402835291602001916104b4565b820191906000526020600020905b81548152906001019060200180831161049757829003601f168201915b505050505093508280546104c7906111a0565b80601f01602080910402602001604051908101604052809291908181526020018280546104f3906111a0565b80156105405780601f1061051557610100808354040283529160200191610540565b820191906000526020600020905b81548152906001019060200180831161052357829003601f168201915b50505050509250808054610553906111a0565b80601f016020809104026020016040519081016040528092919081815260200182805461057f906111a0565b80156105cc5780601f106105a1576101008083540402835291602001916105cc565b820191906000526020600020905b8154815290600101906020018083116105af57829003601f168201915b505050505090509450945094509450945091939590929450565b6002818051602081018201805184825260208301602085012081835280955050505050506000915054906101000a900460ff1681565b600360205280600052604060002060009150905080600001805461063f906111a0565b80601f016020809104026020016040519081016040528092919081815260200182805461066b906111a0565b80156106b85780601f1061068d576101008083540402835291602001916106b8565b820191906000526020600020905b81548152906001019060200180831161069b57829003601f168201915b5050505050908060010180546106cd906111a0565b80601f01602080910402602001604051908101604052809291908181526020018280546106f9906111a0565b80156107465780601f1061071b57610100808354040283529160200191610746565b820191906000526020600020905b81548152906001019060200180831161072957829003601f168201915b50505050509080600201805461075b906111a0565b80601f0160208091040260200160405190810160405280929190818152602001828054610787906111a0565b80156107d45780601f106107a9576101008083540402835291602001916107d4565b820191906000526020600020905b8154815290600101906020018083116107b757829003601f168201915b5050505050908060030160009054906101000a900460ff16908060040180546107fc906111a0565b80601f0160208091040260200160405190810160405280929190818152602001828054610828906111a0565b80156108755780601f1061084a57610100808354040283529160200191610875565b820191906000526020600020905b81548152906001019060200180831161085857829003601f168201915b5050505050905085565b6000818154811061088f57600080fd5b9060005260206000200160009150905080546108aa906111a0565b80601f01602080910402602001604051908101604052809291908181526020018280546108d6906111a0565b80156109235780601f106108f857610100808354040283529160200191610923565b820191906000526020600020905b81548152906001019060200180831161090657829003601f168201915b505050505081565b61093483610b0a565b82600360008673ffffffffffffffffffffffffffffffffffffffff1673ffffffffffffffffffffffffffffffffffffffff1681526020019081526020016000206000019081610983919061137d565b5081600360008673ffffffffffffffffffffffffffffffffffffffff1673ffffffffffffffffffffffffffffffffffffffff16815260200190815260200160002060010190816109d3919061137d565b5080600360008673ffffffffffffffffffffffffffffffffffffffff1673ffffffffffffffffffffffffffffffffffffffff1681526020019081526020016000206002019081610a23919061137d565b506000600360008673ffffffffffffffffffffffffffffffffffffffff1673ffffffffffffffffffffffffffffffffffffffff16815260200190815260200160002060030160006101000a81548160ff0219169083151502179055506040518060400160405280600781526020017f756e5f7061696400000000000000000000000000000000000000000000000000815250600360008673ffffffffffffffffffffffffffffffffffffffff1673ffffffffffffffffffffffffffffffffffffffff1681526020019081526020016000206004019081610b03919061137d565b5050505050565b60001515600282604051610b1e919061148b565b908152602001604051809103902060009054906101000a900460ff16151503610bae57600081908060018154018082558091505060019003906000526020600020016000909190919091509081610b75919061137d565b506001600282604051610b88919061148b565b908152602001604051809103902060006101000a81548160ff0219169083151502179055505b50565b600081519050919050565b600082825260208201905092915050565b6000819050602082019050919050565b600081519050919050565b600082825260208201905092915050565b60005b83811015610c17578082015181840152602081019050610bfc565b60008484015250505050565b6000601f19601f8301169050919050565b6000610c3f82610bdd565b610c498185610be8565b9350610c59818560208601610bf9565b610c6281610c23565b840191505092915050565b6000610c798383610c34565b905092915050565b6000602082019050919050565b6000610c9982610bb1565b610ca38185610bbc565b935083602082028501610cb585610bcd565b8060005b85811015610cf15784840389528151610cd28582610c6d565b9450610cdd83610c81565b925060208a01995050600181019050610cb9565b50829750879550505050505092915050565b60006020820190508181036000830152610d1d8184610c8e565b905092915050565b6000604051905090565b600080fd5b600080fd5b600073ffffffffffffffffffffffffffffffffffffffff82169050919050565b6000610d6482610d39565b9050919050565b610d7481610d59565b8114610d7f57600080fd5b50565b600081359050610d9181610d6b565b92915050565b600060208284031215610dad57610dac610d2f565b5b6000610dbb84828501610d82565b91505092915050565b600082825260208201905092915050565b6000610de082610bdd565b610dea8185610dc4565b9350610dfa818560208601610bf9565b610e0381610c23565b840191505092915050565b60008115159050919050565b610e2381610e0e565b82525050565b600060a0820190508181036000830152610e438188610dd5565b90508181036020830152610e578187610dd5565b90508181036040830152610e6b8186610dd5565b9050610e7a6060830185610e1a565b8181036080830152610e8c8184610dd5565b90509695505050505050565b600080fd5b600080fd5b7f4e487b7100000000000000000000000000000000000000000000000000000000600052604160045260246000fd5b610eda82610c23565b810181811067ffffffffffffffff82111715610ef957610ef8610ea2565b5b80604052505050565b6000610f0c610d25565b9050610f188282610ed1565b919050565b600067ffffffffffffffff821115610f3857610f37610ea2565b5b610f4182610c23565b9050602081019050919050565b82818337600083830152505050565b6000610f70610f6b84610f1d565b610f02565b905082815260208101848484011115610f8c57610f8b610e9d565b5b610f97848285610f4e565b509392505050565b600082601f830112610fb457610fb3610e98565b5b8135610fc4848260208601610f5d565b91505092915050565b600060208284031215610fe357610fe2610d2f565b5b600082013567ffffffffffffffff81111561100157611000610d34565b5b61100d84828501610f9f565b91505092915050565b600060208201905061102b6000830184610e1a565b92915050565b6000819050919050565b61104481611031565b811461104f57600080fd5b50565b6000813590506110618161103b565b92915050565b60006020828403121561107d5761107c610d2f565b5b600061108b84828501611052565b91505092915050565b600060208201905081810360008301526110ae8184610dd5565b905092915050565b600080600080608085870312156110d0576110cf610d2f565b5b60006110de87828801610d82565b945050602085013567ffffffffffffffff8111156110ff576110fe610d34565b5b61110b87828801610f9f565b935050604085013567ffffffffffffffff81111561112c5761112b610d34565b5b61113887828801610f9f565b925050606085013567ffffffffffffffff81111561115957611158610d34565b5b61116587828801610f9f565b91505092959194509250565b7f4e487b7100000000000000000000000000000000000000000000000000000000600052602260045260246000fd5b600060028204905060018216806111b857607f821691505b6020821081036111cb576111ca611171565b5b50919050565b60008190508160005260206000209050919050565b60006020601f8301049050919050565b600082821b905092915050565b6000600883026112337fffffffffffffffffffffffffffffffffffffffffffffffffffffffffffffffff826111f6565b61123d86836111f6565b95508019841693508086168417925050509392505050565b6000819050919050565b600061127a61127561127084611031565b611255565b611031565b9050919050565b6000819050919050565b6112948361125f565b6112a86112a082611281565b848454611203565b825550505050565b600090565b6112bd6112b0565b6112c881848461128b565b505050565b5b818110156112ec576112e16000826112b5565b6001810190506112ce565b5050565b601f82111561133157611302816111d1565b61130b846111e6565b8101602085101561131a578190505b61132e611326856111e6565b8301826112cd565b50505b505050565b600082821c905092915050565b600061135460001984600802611336565b1980831691505092915050565b600061136d8383611343565b9150826002028217905092915050565b61138682610bdd565b67ffffffffffffffff81111561139f5761139e610ea2565b5b6113a982546111a0565b6113b48282856112f0565b600060209050601f8311600181146113e757600084156113d5578287015190505b6113df8582611361565b865550611447565b601f1984166113f5866111d1565b60005b8281101561141d578489015182556001820191506020850194506020810190506113f8565b8683101561143a5784890151611436601f891682611343565b8355505b6001600288020188555050505b505050505050565b600081905092915050565b600061146582610bdd565b61146f818561144f565b935061147f818560208601610bf9565b80840191505092915050565b6000611497828461145a565b91508190509291505056fea264697066735822122004b3d40a2f1ecd829893d505545596fd977812eb91f50659f9354aed4934fdd664736f6c63430008110033",
  "immutableReferences": {},
  "source": "pragma solidity ^0.8.17;\n\n// import \"@openzeppelin/contracts/token/ERC20/ERC20.sol\";\n\ncontract FlightDelay {\n\n    struct Airline {\n        uint index;\n        string name;\n        bool vaild;\n    }\n\n    struct Insurance {\n        string airline;\n        string flight_number;\n        string departure_date;\n        bool delay_status;\n        string payment_status;\n    }\n\n    string [] public airlines;\n    // Airline[] public airlines;\n\n    uint airlineCount = 0;   \n    mapping (string => bool) public isAirline;\n    // mapping (uint => Airline) public isAirline;\n    mapping (address => Insurance) public insurances;\n\n    function createInsurance(address _owner, string memory _airline, string memory _flight_number, string memory _departure_date) public {\n        // add airline data\n        addAirline(_airline);\n\n        // create user insurance data\n        insurances[_owner].airline = _airline;\n        insurances[_owner].flight_number = _flight_number;\n        insurances[_owner].departure_date = _departure_date;\n        insurances[_owner].delay_status = false;\n        insurances[_owner].payment_status = \"un_paid\";\n    }\n\n    function getInsurance(address _owner) public view returns(string memory, string memory, string memory, bool, string memory) {\n        return (insurances[_owner].airline, insurances[_owner].flight_number, insurances[_owner].departure_date, insurances[_owner].delay_status, insurances[_owner].payment_status);\n    }\n    \n    function addAirline(string memory _airline) internal {\n        // airlines.push(_airline);\n        // isAirline[_airline] = true;\n\n        // if(!isAirline[airlineCount].vaild){\n        //     isAirline[airlineCount].name = _airline;\n        //     isAirline[airlineCount].vaild = true;\n        //     airlineCount++;\n        // }\n\n        if (isAirline[_airline] == false) {\n            // push the unique item to the array\n            airlines.push(_airline);\n            // don't forget to set the mapping value as well\n            isAirline[_airline] = true;\n        }\n    }\n    // function getIsAirline(uint _index) public view returns (string memory, bool) {\n    //     return (isAirline[_index].name, isAirline[_index].vaild);\n    // }\n\n    function getAirlines() public view returns (string[] memory) {\n        // string[] memory ret = new string[](airlineCount);\n        // for (uint i = 0; i < airlineCount; i++) {\n        //     ret[i] = isAirline[i].name;\n        // }\n        // return ret;\n        return airlines;\n    }\n}",
  "sourcePath": "/Users/changhsin-i/Downloads//LifeChain/contracts/flightDelay.sol",
  "compiler": {
    "name": "solc",
    "version": "0.8.17+commit.8df45f5f.Emscripten.clang"
  },
  "schemaVersion": "3.4.10",
  "updatedAt": "2022-10-01T10:24:41.656Z",
  "networkType": "ethereum",
  "devdoc": {
    "kind": "dev",
    "methods": {},
    "version": 1
  },
  "userdoc": {
    "kind": "user",
    "methods": {},
    "version": 1
  }
}