{
  "contractName": "Send",
  "abi": [
    {
      "inputs": [],
      "name": "toContract",
      "outputs": [],
      "stateMutability": "payable",
      "type": "function",
      "payable": true
    },
    {
      "inputs": [
        {
          "internalType": "address payable",
          "name": "_to",
          "type": "address"
        },
        {
          "internalType": "uint256",
          "name": "_amount",
          "type": "uint256"
        }
      ],
      "name": "withdrawMoneyTo",
      "outputs": [],
      "stateMutability": "nonpayable",
      "type": "function"
    }
  ],
  "bytecode": "0x608060405234801561001057600080fd5b506102e9806100206000396000f3fe6080604052600436106100295760003560e01c806361b21f4d1461002e57806361b49c2114610038575b600080fd5b610036610061565b005b34801561004457600080fd5b5061005f600480360381019061005a91906101b0565b610063565b005b565b6000808373ffffffffffffffffffffffffffffffffffffffff168360405161008a90610221565b60006040518083038185875af1925050503d80600081146100c7576040519150601f19603f3d011682016040523d82523d6000602084013e6100cc565b606091505b509150915081610111576040517f08c379a000000000000000000000000000000000000000000000000000000000815260040161010890610293565b60405180910390fd5b50505050565b600080fd5b600073ffffffffffffffffffffffffffffffffffffffff82169050919050565b60006101478261011c565b9050919050565b6101578161013c565b811461016257600080fd5b50565b6000813590506101748161014e565b92915050565b6000819050919050565b61018d8161017a565b811461019857600080fd5b50565b6000813590506101aa81610184565b92915050565b600080604083850312156101c7576101c6610117565b5b60006101d585828601610165565b92505060206101e68582860161019b565b9150509250929050565b600081905092915050565b50565b600061020b6000836101f0565b9150610216826101fb565b600082019050919050565b600061022c826101fe565b9150819050919050565b600082825260208201905092915050565b7f4661696c656420746f2073656e64204574686572000000000000000000000000600082015250565b600061027d601483610236565b915061028882610247565b602082019050919050565b600060208201905081810360008301526102ac81610270565b905091905056fea264697066735822122024db684b9842f5ac5d09f6db516ad13a1f5feb276dcc160aaa96dc9bc0aff8f564736f6c63430008110033",
  "immutableReferences": {},
  "source": "pragma solidity ^0.8.17;\n\ncontract Send {\n    function toContract() public payable {}\n\n    function withdrawMoneyTo(address payable _to, uint _amount) public {\n        (bool sent, bytes memory data) = _to.call{value: _amount}(\"\");\n        require(sent, \"Failed to send Ether\");\n    }\n}",
  "sourcePath": "/Users/changhsin-i/Downloads//LifeChain/contracts/send.sol",
  "compiler": {
    "name": "solc",
    "version": "0.8.17+commit.8df45f5f.Emscripten.clang"
  },
  "schemaVersion": "3.4.10",
  "updatedAt": "2022-10-16T14:01:52.593Z",
  "networkType": "ethereum",
  "devdoc": {
    "kind": "dev",
    "methods": {},
    "version": 1
  },
  "userdoc": {
    "kind": "user",
    "methods": {},
    "version": 1
  }
}